{
  "transactions": [
    {
      "hash": "0xaf78bfcab3fbebb3038e8e08ad8103dfce8b0fad064bc8366076cb425ac2bc5d",
      "transactionType": "CALL",
      "contractName": "GameRegistryGovernor",
      "contractAddress": "0x51511bed41dd4d3cdec574f85b6ebba123b9b1d1",
      "function": "propose(address[],uint256[],bytes[],string)",
      "arguments": [
        "[0xc83b139327BA47a9BAe64f9Fe0672185d85F38e5]",
        "[0]",
        "[0x9b36057c0000000000000000000000000000000000000000000000000000000000001234]",
        "Register new mock game. Timestamp:1745962644"
      ],
      "transaction": {
        "from": "0x6698bf15be0abbdf4b0dcd60d97fce7461dd9c1b",
        "to": "0x51511bed41dd4d3cdec574f85b6ebba123b9b1d1",
        "gas": "0x175d6",
        "value": "0x0",
        "input": "0x7d5e81e2000000000000000000000000000000000000000000000000000000000000008000000000000000000000000000000000000000000000000000000000000000c0000000000000000000000000000000000000000000000000000000000000010000000000000000000000000000000000000000000000000000000000000001a00000000000000000000000000000000000000000000000000000000000000001000000000000000000000000c83b139327ba47a9bae64f9fe0672185d85f38e5000000000000000000000000000000000000000000000000000000000000000100000000000000000000000000000000000000000000000000000000000000000000000000000000000000000000000000000000000000000000000000000001000000000000000000000000000000000000000000000000000000000000002000000000000000000000000000000000000000000000000000000000000000249b36057c000000000000000000000000000000000000000000000000000000000000123400000000000000000000000000000000000000000000000000000000000000000000000000000000000000000000000000000000000000000000002c5265676973746572206e6577206d6f636b2067616d652e2054696d657374616d703a313734353936323634340000000000000000000000000000000000000000",
        "nonce": "0x31",
        "chainId": "0xaa36a7"
      },
      "additionalContracts": [],
      "isFixedGasLimit": false
    },
    {
      "hash": "0x4a2928134d489ce513c0cf1ef0d0619c3f5a57832be68c97dc3a3963a9366598",
      "transactionType": "CALL",
      "contractName": "GoodGame",
      "contractAddress": "0x57b398b41ae594675bf5fa642c704e64ba07f516",
      "function": "createSword(address,uint256,uint256,uint256)",
      "arguments": [
        "0x6698BF15bE0Abbdf4b0DcD60d97FcE7461DD9C1B",
        "2",
        "100",
        "500"
      ],
      "transaction": {
        "from": "0x6698bf15be0abbdf4b0dcd60d97fce7461dd9c1b",
        "to": "0x57b398b41ae594675bf5fa642c704e64ba07f516",
        "gas": "0x3b8c0",
        "value": "0x0",
        "input": "0x8a5dcebf0000000000000000000000006698bf15be0abbdf4b0dcd60d97fce7461dd9c1b0000000000000000000000000000000000000000000000000000000000000002000000000000000000000000000000000000000000000000000000000000006400000000000000000000000000000000000000000000000000000000000001f4",
        "nonce": "0x32",
        "chainId": "0xaa36a7"
      },
      "additionalContracts": [],
      "isFixedGasLimit": false
    },
    {
      "hash": "0x45a826c673cd8cc2ed8a2dfc7b934ac41b0dad3fce443f69fcabec7622dc8563",
      "transactionType": "CALL",
      "contractName": "GoodGame",
      "contractAddress": "0x57b398b41ae594675bf5fa642c704e64ba07f516",
      "function": "updateSwordAttributes(address,uint256,uint256,uint256)",
      "arguments": [
        "0xd0f3aC4F44c545F16BdACB693c71521bC31fc256",
        "2",
        "500",
        "2500"
      ],
      "transaction": {
        "from": "0x6698bf15be0abbdf4b0dcd60d97fce7461dd9c1b",
        "to": "0x57b398b41ae594675bf5fa642c704e64ba07f516",
        "gas": "0x1bc1b",
        "value": "0x0",
        "input": "0x8d92e2a7000000000000000000000000d0f3ac4f44c545f16bdacb693c71521bc31fc256000000000000000000000000000000000000000000000000000000000000000200000000000000000000000000000000000000000000000000000000000001f400000000000000000000000000000000000000000000000000000000000009c4",
        "nonce": "0x33",
        "chainId": "0xaa36a7"
      },
      "additionalContracts": [],
      "isFixedGasLimit": false
    }
  ],
  "receipts": [
    {
      "status": "0x1",
      "cumulativeGasUsed": "0xd17389",
      "logs": [
        {
          "address": "0x51511bed41dd4d3cdec574f85b6ebba123b9b1d1",
          "topics": [
            "0x7d84a6263ae0d98d3329bd7b46bb4e8d6f98cd35a7adb45c274c8b7fd5ebd5e0"
          ],
          "data": "0x010f0340f29350331dcb8c2428646a9ee2b855ae969cc8d2bc0970b83e28e2c60000000000000000000000006698bf15be0abbdf4b0dcd60d97fce7461dd9c1b0000000000000000000000000000000000000000000000000000000000000120000000000000000000000000000000000000000000000000000000000000016000000000000000000000000000000000000000000000000000000000000001a0000000000000000000000000000000000000000000000000000000000000020000000000000000000000000000000000000000000000000000000000007d75a400000000000000000000000000000000000000000000000000000000007d75ae00000000000000000000000000000000000000000000000000000000000002a00000000000000000000000000000000000000000000000000000000000000001000000000000000000000000c83b139327ba47a9bae64f9fe0672185d85f38e5000000000000000000000000000000000000000000000000000000000000000100000000000000000000000000000000000000000000000000000000000000000000000000000000000000000000000000000000000000000000000000000001000000000000000000000000000000000000000000000000000000000000002000000000000000000000000000000000000000000000000000000000000000000000000000000000000000000000000000000000000000000000000000000001000000000000000000000000000000000000000000000000000000000000002000000000000000000000000000000000000000000000000000000000000000249b36057c000000000000000000000000000000000000000000000000000000000000123400000000000000000000000000000000000000000000000000000000000000000000000000000000000000000000000000000000000000000000002c5265676973746572206e6577206d6f636b2067616d652e2054696d657374616d703a313734353936323634340000000000000000000000000000000000000000",
          "blockHash": "0x73eaab6e4c5ae8d355015c41c95e2fd0b1674789ff8fc5bdcde8524193f54783",
          "blockNumber": "0x7d75a3",
          "blockTimestamp": "0x681146a0",
          "transactionHash": "0xaf78bfcab3fbebb3038e8e08ad8103dfce8b0fad064bc8366076cb425ac2bc5d",
          "transactionIndex": "0x5d",
          "logIndex": "0xf6",
          "removed": false
        }
      ],
      "logsBloom": "0x00000000000000000000000000000000000000000000000000000000000000000000000000000000000000000000000000000000000000000000000000000008000000000202000000000000000000000000000000000000000000000000000000000000000000000000000000000000000000000000008000000000000000000000000000000000000000000000000000000000000000000000000000000000080000000000000000000000000000000000000000000000000000000000000200000000000000000000000000000000000000000000000000000000000000000000000000000000000000000000000000000000000000000000000000000000",
      "type": "0x2",
      "transactionHash": "0xaf78bfcab3fbebb3038e8e08ad8103dfce8b0fad064bc8366076cb425ac2bc5d",
      "transactionIndex": "0x5d",
      "blockHash": "0x73eaab6e4c5ae8d355015c41c95e2fd0b1674789ff8fc5bdcde8524193f54783",
      "blockNumber": "0x7d75a3",
      "gasUsed": "0x10ea7",
      "effectiveGasPrice": "0x621fbb",
      "from": "0x6698bf15be0abbdf4b0dcd60d97fce7461dd9c1b",
      "to": "0x51511bed41dd4d3cdec574f85b6ebba123b9b1d1",
      "contractAddress": null
    },
    {
      "status": "0x1",
      "cumulativeGasUsed": "0xd42550",
      "logs": [
        {
          "address": "0xd0f3ac4f44c545f16bdacb693c71521bc31fc256",
          "topics": [
            "0xddf252ad1be2c89b69c2b068fc378daa952ba7f163c4a11628f55a4df523b3ef",
            "0x0000000000000000000000000000000000000000000000000000000000000000",
            "0x0000000000000000000000006698bf15be0abbdf4b0dcd60d97fce7461dd9c1b",
            "0x0000000000000000000000000000000000000000000000000000000000000002"
          ],
          "data": "0x",
          "blockHash": "0x73eaab6e4c5ae8d355015c41c95e2fd0b1674789ff8fc5bdcde8524193f54783",
          "blockNumber": "0x7d75a3",
          "blockTimestamp": "0x681146a0",
          "transactionHash": "0x4a2928134d489ce513c0cf1ef0d0619c3f5a57832be68c97dc3a3963a9366598",
          "transactionIndex": "0x5e",
          "logIndex": "0xf7",
          "removed": false
        },
        {
          "address": "0xd0f3ac4f44c545f16bdacb693c71521bc31fc256",
          "topics": [
            "0x0d759ec6a0397e3b626d46acdee753d4d91449b55c6bea35401a94aa3412d7ea",
            "0x0000000000000000000000000000000000000000000000000000000000000002",
            "0x00000000000000000000000057b398b41ae594675bf5fa642c704e64ba07f516"
          ],
          "data": "0x000000000000000000000000000000000000000000000000000000000000004000000000000000000000000000000000000000000000000000000000000000a000000000000000000000000000000000000000000000000000000000000000020615365f5d385e4fe29c28bb271ebfe27d8776c0e78b1eba2a353311412f3c99de5d1fa8a6595003796d9e5b2987cc61048747f1dd20f651054db2aab3d74ec100000000000000000000000000000000000000000000000000000000000000020000000000000000000000000000000000000000000000000000000000000040000000000000000000000000000000000000000000000000000000000000008000000000000000000000000000000000000000000000000000000000000000200000000000000000000000000000000000000000000000000000000000000064000000000000000000000000000000000000000000000000000000000000002000000000000000000000000000000000000000000000000000000000000001f4",
          "blockHash": "0x73eaab6e4c5ae8d355015c41c95e2fd0b1674789ff8fc5bdcde8524193f54783",
          "blockNumber": "0x7d75a3",
          "blockTimestamp": "0x681146a0",
          "transactionHash": "0x4a2928134d489ce513c0cf1ef0d0619c3f5a57832be68c97dc3a3963a9366598",
          "transactionIndex": "0x5e",
          "logIndex": "0xf8",
          "removed": false
        },
        {
          "address": "0x57b398b41ae594675bf5fa642c704e64ba07f516",
          "topics": [
            "0x1af950dbf59f11b52ac97cf39a902c4e97901bec83f03694cb30b3d78dfa5042",
            "0x0000000000000000000000006698bf15be0abbdf4b0dcd60d97fce7461dd9c1b",
            "0x0000000000000000000000000000000000000000000000000000000000000002"
          ],
          "data": "0x000000000000000000000000000000000000000000000000000000000000006400000000000000000000000000000000000000000000000000000000000001f4",
          "blockHash": "0x73eaab6e4c5ae8d355015c41c95e2fd0b1674789ff8fc5bdcde8524193f54783",
          "blockNumber": "0x7d75a3",
          "blockTimestamp": "0x681146a0",
          "transactionHash": "0x4a2928134d489ce513c0cf1ef0d0619c3f5a57832be68c97dc3a3963a9366598",
          "transactionIndex": "0x5e",
          "logIndex": "0xf9",
          "removed": false
        }
      ],
      "logsBloom": "0x04000000080000000000040000000000000000000000000002000010000000000000000000000000000000000000000000000000000000000000000000000000000040000000000000000008000000000000000000000000000000000000000800000000020000800000000000000800000000000000000000000010000000000000040000000800000000000400000000000000000000000000000000000000000000000000000000000180000000000000000000000000200000000000000000000202000000000200000000000000000210000000040000000000400020000000000000000000000000000000000000000000008000000000000000000000",
      "type": "0x2",
      "transactionHash": "0x4a2928134d489ce513c0cf1ef0d0619c3f5a57832be68c97dc3a3963a9366598",
      "transactionIndex": "0x5e",
      "blockHash": "0x73eaab6e4c5ae8d355015c41c95e2fd0b1674789ff8fc5bdcde8524193f54783",
      "blockNumber": "0x7d75a3",
      "gasUsed": "0x2b1c7",
      "effectiveGasPrice": "0x621fbb",
      "from": "0x6698bf15be0abbdf4b0dcd60d97fce7461dd9c1b",
      "to": "0x57b398b41ae594675bf5fa642c704e64ba07f516",
      "contractAddress": null
    },
    {
      "status": "0x1",
      "cumulativeGasUsed": "0xd554fa",
      "logs": [
        {
          "address": "0xd0f3ac4f44c545f16bdacb693c71521bc31fc256",
          "topics": [
            "0x0d759ec6a0397e3b626d46acdee753d4d91449b55c6bea35401a94aa3412d7ea",
            "0x0000000000000000000000000000000000000000000000000000000000000002",
            "0x00000000000000000000000057b398b41ae594675bf5fa642c704e64ba07f516"
          ],
          "data": "0x000000000000000000000000000000000000000000000000000000000000004000000000000000000000000000000000000000000000000000000000000000a000000000000000000000000000000000000000000000000000000000000000020615365f5d385e4fe29c28bb271ebfe27d8776c0e78b1eba2a353311412f3c99de5d1fa8a6595003796d9e5b2987cc61048747f1dd20f651054db2aab3d74ec1000000000000000000000000000000000000000000000000000000000000000200000000000000000000000000000000000000000000000000000000000000400000000000000000000000000000000000000000000000000000000000000080000000000000000000000000000000000000000000000000000000000000002000000000000000000000000000000000000000000000000000000000000001f4000000000000000000000000000000000000000000000000000000000000002000000000000000000000000000000000000000000000000000000000000009c4",
          "blockHash": "0x73eaab6e4c5ae8d355015c41c95e2fd0b1674789ff8fc5bdcde8524193f54783",
          "blockNumber": "0x7d75a3",
          "blockTimestamp": "0x681146a0",
          "transactionHash": "0x45a826c673cd8cc2ed8a2dfc7b934ac41b0dad3fce443f69fcabec7622dc8563",
          "transactionIndex": "0x5f",
          "logIndex": "0xfa",
          "removed": false
        },
        {
          "address": "0x57b398b41ae594675bf5fa642c704e64ba07f516",
          "topics": [
            "0x8acc0cd48046be1ed0d04bfb2ac148139a41c6486870fa71d646f9f1f8001c4d",
            "0x0000000000000000000000000000000000000000000000000000000000000002"
          ],
          "data": "0x00000000000000000000000000000000000000000000000000000000000001f400000000000000000000000000000000000000000000000000000000000009c4",
          "blockHash": "0x73eaab6e4c5ae8d355015c41c95e2fd0b1674789ff8fc5bdcde8524193f54783",
          "blockNumber": "0x7d75a3",
          "blockTimestamp": "0x681146a0",
          "transactionHash": "0x45a826c673cd8cc2ed8a2dfc7b934ac41b0dad3fce443f69fcabec7622dc8563",
          "transactionIndex": "0x5f",
          "logIndex": "0xfb",
          "removed": false
        }
      ],
      "logsBloom": "0x04000000080000000000040000000000000000000000000000000000000000000000000000000000000000000000000000000000000000000000000000000000000040000000000000000000000000000000000000000000000000000000000800000000000000800000000008000000000000000000000000000000000000000000000000000800000000000000000000000000000000000000000002000000000000000000000000000180000000000000000000000000200000000000000000000000000000000200000000000000000210000000040000000000000000000000000200000000000000000000000000000000008000000000000000000000",
      "type": "0x2",
      "transactionHash": "0x45a826c673cd8cc2ed8a2dfc7b934ac41b0dad3fce443f69fcabec7622dc8563",
      "transactionIndex": "0x5f",
      "blockHash": "0x73eaab6e4c5ae8d355015c41c95e2fd0b1674789ff8fc5bdcde8524193f54783",
      "blockNumber": "0x7d75a3",
      "gasUsed": "0x12faa",
      "effectiveGasPrice": "0x621fbb",
      "from": "0x6698bf15be0abbdf4b0dcd60d97fce7461dd9c1b",
      "to": "0x57b398b41ae594675bf5fa642c704e64ba07f516",
      "contractAddress": null
    }
  ],
  "libraries": [],
  "pending": [],
  "returns": {},
  "timestamp": 1745962657,
  "chain": 11155111,
  "commit": "53e984e"
}