{
  "transactions": [
    {
      "hash": "0x92ba3972f0c3d6c9a5a5f3a06b5cdc9b0bce0af4bee3bec9089f779c2737704a",
      "transactionType": "CALL",
      "contractName": "GameRegistryGovernor",
      "contractAddress": "0x51511bed41dd4d3cdec574f85b6ebba123b9b1d1",
      "function": "queue(address[],uint256[],bytes[],bytes32)",
      "arguments": [
        "[0xc83b139327BA47a9BAe64f9Fe0672185d85F38e5]",
        "[0]",
        "[0x9b36057c000000000000000000000000610178da211fef7d417bc0e6fed39f05609ad788]",
        "0xa0054639bec23381891d308fdead5d736656ea3976802017184ea0cc8b26ebe3"
      ],
      "transaction": {
        "from": "0x6698bf15be0abbdf4b0dcd60d97fce7461dd9c1b",
        "to": "0x51511bed41dd4d3cdec574f85b6ebba123b9b1d1",
        "gas": "0x3108c",
        "value": "0x0",
        "input": "0x160cbed7000000000000000000000000000000000000000000000000000000000000008000000000000000000000000000000000000000000000000000000000000000c00000000000000000000000000000000000000000000000000000000000000100a0054639bec23381891d308fdead5d736656ea3976802017184ea0cc8b26ebe30000000000000000000000000000000000000000000000000000000000000001000000000000000000000000c83b139327ba47a9bae64f9fe0672185d85f38e5000000000000000000000000000000000000000000000000000000000000000100000000000000000000000000000000000000000000000000000000000000000000000000000000000000000000000000000000000000000000000000000001000000000000000000000000000000000000000000000000000000000000002000000000000000000000000000000000000000000000000000000000000000249b36057c000000000000000000000000610178da211fef7d417bc0e6fed39f05609ad78800000000000000000000000000000000000000000000000000000000",
        "nonce": "0x1f",
        "chainId": "0xaa36a7"
      },
      "additionalContracts": [],
      "isFixedGasLimit": false
    }
  ],
  "receipts": [
    {
      "status": "0x1",
      "cumulativeGasUsed": "0x9b7905",
      "logs": [
        {
          "address": "0x0232e7a35d64d60db0617a02e42897c8f41ba4a3",
          "topics": [
            "0x4cf4410cc57040e44862ef0f45f3dd5a5e02db8eb8add648d4b0e236f1d07dca",
            "0xb6562e477fa87a1bab0c9e416bafe040d10a95fbc92f482f0f94b06ace533648",
            "0x0000000000000000000000000000000000000000000000000000000000000000"
          ],
          "data": "0x000000000000000000000000c83b139327ba47a9bae64f9fe0672185d85f38e5000000000000000000000000000000000000000000000000000000000000000000000000000000000000000000000000000000000000000000000000000000a00000000000000000000000000000000000000000000000000000000000000000000000000000000000000000000000000000000000000000000000000001518000000000000000000000000000000000000000000000000000000000000000249b36057c000000000000000000000000610178da211fef7d417bc0e6fed39f05609ad78800000000000000000000000000000000000000000000000000000000",
          "blockHash": "0x89f641623f352afd54119c8d879e25585772ac14e4a654dfedc0da92c57d5552",
          "blockNumber": "0x7d33da",
          "blockTimestamp": "0x680df8e8",
          "transactionHash": "0x92ba3972f0c3d6c9a5a5f3a06b5cdc9b0bce0af4bee3bec9089f779c2737704a",
          "transactionIndex": "0x63",
          "logIndex": "0xa0",
          "removed": false
        },
        {
          "address": "0x0232e7a35d64d60db0617a02e42897c8f41ba4a3",
          "topics": [
            "0x20fda5fd27a1ea7bf5b9567f143ac5470bb059374a27e8f67cb44f946f6d0387",
            "0xb6562e477fa87a1bab0c9e416bafe040d10a95fbc92f482f0f94b06ace533648"
          ],
          "data": "0xf1545dd4ff1f7ebd57d8447785c3e6d245ef5be876802017184ea0cc8b26ebe3",
          "blockHash": "0x89f641623f352afd54119c8d879e25585772ac14e4a654dfedc0da92c57d5552",
          "blockNumber": "0x7d33da",
          "blockTimestamp": "0x680df8e8",
          "transactionHash": "0x92ba3972f0c3d6c9a5a5f3a06b5cdc9b0bce0af4bee3bec9089f779c2737704a",
          "transactionIndex": "0x63",
          "logIndex": "0xa1",
          "removed": false
        },
        {
          "address": "0x51511bed41dd4d3cdec574f85b6ebba123b9b1d1",
          "topics": [
            "0x9a2e42fd6722813d69113e7d0079d3d940171428df7373df9c7f7617cfda2892"
          ],
          "data": "0xb533ba5487b2dcc78245f6b4b68e7c500238728479337540ba1f6e60710787d800000000000000000000000000000000000000000000000000000000680f4a68",
          "blockHash": "0x89f641623f352afd54119c8d879e25585772ac14e4a654dfedc0da92c57d5552",
          "blockNumber": "0x7d33da",
          "blockTimestamp": "0x680df8e8",
          "transactionHash": "0x92ba3972f0c3d6c9a5a5f3a06b5cdc9b0bce0af4bee3bec9089f779c2737704a",
          "transactionIndex": "0x63",
          "logIndex": "0xa2",
          "removed": false
        }
      ],
      "logsBloom": "0x00000000000000000000000040020000000000000000000000000000000000000000000000000000000000000000000100000000800000000100000000000008000000000200000000000000002000000000000000040008000000000000000000000000020000000000000000000800000081000000008000000000000000000000000000000000000000000000000000000000000000000000000000000000000000000000000000000000000000000000000000000000000000000000000000000000000000000000000000100000000000000000400000000000400020000000000000000000001000000000000000000000000000000000000000001000",
      "type": "0x2",
      "transactionHash": "0x92ba3972f0c3d6c9a5a5f3a06b5cdc9b0bce0af4bee3bec9089f779c2737704a",
      "transactionIndex": "0x63",
      "blockHash": "0x89f641623f352afd54119c8d879e25585772ac14e4a654dfedc0da92c57d5552",
      "blockNumber": "0x7d33da",
      "gasUsed": "0x23800",
      "effectiveGasPrice": "0x7a88d83f9",
      "from": "0x6698bf15be0abbdf4b0dcd60d97fce7461dd9c1b",
      "to": "0x51511bed41dd4d3cdec574f85b6ebba123b9b1d1",
      "contractAddress": null
    }
  ],
  "libraries": [],
  "pending": [],
  "returns": {},
  "timestamp": 1745746155,
  "chain": 11155111,
  "commit": "28c6100"
}