{
  "transactions": [
    {
      "hash": "0xf340ad26f88c6d8fa9a33e1f851c153f83fbd9edb9079b8bfd3a4e64649b6e34",
      "transactionType": "CALL",
      "contractName": "GameRegistryGovernor",
      "contractAddress": "0x51511bed41dd4d3cdec574f85b6ebba123b9b1d1",
      "function": "queue(address[],uint256[],bytes[],bytes32)",
      "arguments": [
        "[0xc83b139327BA47a9BAe64f9Fe0672185d85F38e5]",
        "[0]",
        "[0x9b36057c00000000000000000000000057b398b41ae594675bf5fa642c704e64ba07f516]",
        "0x8aa045fb90376f12adeb34e76880a8178410a48d753b08f74d2a83814697acbf"
      ],
      "transaction": {
        "from": "0x6698bf15be0abbdf4b0dcd60d97fce7461dd9c1b",
        "to": "0x51511bed41dd4d3cdec574f85b6ebba123b9b1d1",
        "gas": "0x3108c",
        "value": "0x0",
        "input": "0x160cbed7000000000000000000000000000000000000000000000000000000000000008000000000000000000000000000000000000000000000000000000000000000c000000000000000000000000000000000000000000000000000000000000001008aa045fb90376f12adeb34e76880a8178410a48d753b08f74d2a83814697acbf0000000000000000000000000000000000000000000000000000000000000001000000000000000000000000c83b139327ba47a9bae64f9fe0672185d85f38e5000000000000000000000000000000000000000000000000000000000000000100000000000000000000000000000000000000000000000000000000000000000000000000000000000000000000000000000000000000000000000000000001000000000000000000000000000000000000000000000000000000000000002000000000000000000000000000000000000000000000000000000000000000249b36057c00000000000000000000000057b398b41ae594675bf5fa642c704e64ba07f51600000000000000000000000000000000000000000000000000000000",
        "nonce": "0x29",
        "chainId": "0xaa36a7"
      },
      "additionalContracts": [],
      "isFixedGasLimit": false
    }
  ],
  "receipts": [
    {
      "status": "0x1",
      "cumulativeGasUsed": "0xec433b",
      "logs": [
        {
          "address": "0x0232e7a35d64d60db0617a02e42897c8f41ba4a3",
          "topics": [
            "0x4cf4410cc57040e44862ef0f45f3dd5a5e02db8eb8add648d4b0e236f1d07dca",
            "0x1c2d82a585dd02b4a77574fb4b213362bdc9bbecaaa3cdc2aeca7841378c6029",
            "0x0000000000000000000000000000000000000000000000000000000000000000"
          ],
          "data": "0x000000000000000000000000c83b139327ba47a9bae64f9fe0672185d85f38e5000000000000000000000000000000000000000000000000000000000000000000000000000000000000000000000000000000000000000000000000000000a00000000000000000000000000000000000000000000000000000000000000000000000000000000000000000000000000000000000000000000000000001518000000000000000000000000000000000000000000000000000000000000000249b36057c00000000000000000000000057b398b41ae594675bf5fa642c704e64ba07f51600000000000000000000000000000000000000000000000000000000",
          "blockHash": "0xbe789c25506a08a14c21ae85d41061272b6c6094fba351704a51a55c72657922",
          "blockNumber": "0x7d5828",
          "blockTimestamp": "0x680fcb14",
          "transactionHash": "0xf340ad26f88c6d8fa9a33e1f851c153f83fbd9edb9079b8bfd3a4e64649b6e34",
          "transactionIndex": "0x85",
          "logIndex": "0x17d",
          "removed": false
        },
        {
          "address": "0x0232e7a35d64d60db0617a02e42897c8f41ba4a3",
          "topics": [
            "0x20fda5fd27a1ea7bf5b9567f143ac5470bb059374a27e8f67cb44f946f6d0387",
            "0x1c2d82a585dd02b4a77574fb4b213362bdc9bbecaaa3cdc2aeca7841378c6029"
          ],
          "data": "0xdbf15e16d1ea222e732e401f33ee13b6a7a9155c753b08f74d2a83814697acbf",
          "blockHash": "0xbe789c25506a08a14c21ae85d41061272b6c6094fba351704a51a55c72657922",
          "blockNumber": "0x7d5828",
          "blockTimestamp": "0x680fcb14",
          "transactionHash": "0xf340ad26f88c6d8fa9a33e1f851c153f83fbd9edb9079b8bfd3a4e64649b6e34",
          "transactionIndex": "0x85",
          "logIndex": "0x17e",
          "removed": false
        },
        {
          "address": "0x51511bed41dd4d3cdec574f85b6ebba123b9b1d1",
          "topics": [
            "0x9a2e42fd6722813d69113e7d0079d3d940171428df7373df9c7f7617cfda2892"
          ],
          "data": "0xcae7ca511b127bc9184a2b605c7d6ebf47a649c5ed1f8d09037a89aaa41fb9860000000000000000000000000000000000000000000000000000000068111c94",
          "blockHash": "0xbe789c25506a08a14c21ae85d41061272b6c6094fba351704a51a55c72657922",
          "blockNumber": "0x7d5828",
          "blockTimestamp": "0x680fcb14",
          "transactionHash": "0xf340ad26f88c6d8fa9a33e1f851c153f83fbd9edb9079b8bfd3a4e64649b6e34",
          "transactionIndex": "0x85",
          "logIndex": "0x17f",
          "removed": false
        }
      ],
      "logsBloom": "0x00000000000000000000000040000000000000000000000000000000000000000000000000000000000000000000000100000000800000000100000000000008000000000200000000000000002000000000000000000008000000000000000000000000020000000000000000000800000081000000008000000000000000000000004000004000000000000000000000000000000000000000000000000000000000000000000000000000000000000000000000000000000000000000000000000000000000000000000000100000000000000000400800000000400020000000000000000000001000000000000000000000000000000000000000000000",
      "type": "0x2",
      "transactionHash": "0xf340ad26f88c6d8fa9a33e1f851c153f83fbd9edb9079b8bfd3a4e64649b6e34",
      "transactionIndex": "0x85",
      "blockHash": "0xbe789c25506a08a14c21ae85d41061272b6c6094fba351704a51a55c72657922",
      "blockNumber": "0x7d5828",
      "gasUsed": "0x23800",
      "effectiveGasPrice": "0x3f41727c",
      "from": "0x6698bf15be0abbdf4b0dcd60d97fce7461dd9c1b",
      "to": "0x51511bed41dd4d3cdec574f85b6ebba123b9b1d1",
      "contractAddress": null
    }
  ],
  "libraries": [],
  "pending": [],
  "returns": {},
  "timestamp": 1745865493,
  "chain": 11155111,
  "commit": "0d0851a"
}