{
  "transactions": [
    {
      "hash": "0xa02d5435ffca01e6c0466d67fd277fc4fb0605222130c8593b4ae8a6c11ee873",
      "transactionType": "CALL",
      "contractName": null,
      "contractAddress": "0x51511bed41dd4d3cdec574f85b6ebba123b9b1d1",
      "function": "execute(address[],uint256[],bytes[],bytes32)",
      "arguments": [
        "[0xc83b139327BA47a9BAe64f9Fe0672185d85F38e5]",
        "[0]",
        "[0x9b36057c00000000000000000000000057b398b41ae594675bf5fa642c704e64ba07f516]",
        "0x8aa045fb90376f12adeb34e76880a8178410a48d753b08f74d2a83814697acbf"
      ],
      "transaction": {
        "from": "0x6698bf15be0abbdf4b0dcd60d97fce7461dd9c1b",
        "to": "0x51511bed41dd4d3cdec574f85b6ebba123b9b1d1",
        "gas": "0x3e5fd",
        "value": "0x0",
        "input": "0x2656227d000000000000000000000000000000000000000000000000000000000000008000000000000000000000000000000000000000000000000000000000000000c000000000000000000000000000000000000000000000000000000000000001008aa045fb90376f12adeb34e76880a8178410a48d753b08f74d2a83814697acbf0000000000000000000000000000000000000000000000000000000000000001000000000000000000000000c83b139327ba47a9bae64f9fe0672185d85f38e5000000000000000000000000000000000000000000000000000000000000000100000000000000000000000000000000000000000000000000000000000000000000000000000000000000000000000000000000000000000000000000000001000000000000000000000000000000000000000000000000000000000000002000000000000000000000000000000000000000000000000000000000000000249b36057c00000000000000000000000057b398b41ae594675bf5fa642c704e64ba07f51600000000000000000000000000000000000000000000000000000000",
        "nonce": "0x2b",
        "chainId": "0xaa36a7"
      },
      "additionalContracts": [],
      "isFixedGasLimit": false
    }
  ],
  "receipts": [
    {
      "status": "0x1",
      "cumulativeGasUsed": "0x8d02da",
      "logs": [
        {
          "address": "0xc83b139327ba47a9bae64f9fe0672185d85f38e5",
          "topics": [
            "0x076eada2b266f926d3ecb187dece20428d68db62016c04bea8ccb92679f788de",
            "0x00000000000000000000000057b398b41ae594675bf5fa642c704e64ba07f516",
            "0x0000000000000000000000000232e7a35d64d60db0617a02e42897c8f41ba4a3"
          ],
          "data": "0x",
          "blockHash": "0x332a19199a8743c07bc51eaeb6b8d221e03535499cc7cf8287b803feae423d3e",
          "blockNumber": "0x7d7519",
          "blockTimestamp": "0x68113fbc",
          "transactionHash": "0xa02d5435ffca01e6c0466d67fd277fc4fb0605222130c8593b4ae8a6c11ee873",
          "transactionIndex": "0x58",
          "logIndex": "0xa7",
          "removed": false
        },
        {
          "address": "0x0232e7a35d64d60db0617a02e42897c8f41ba4a3",
          "topics": [
            "0xc2617efa69bab66782fa219543714338489c4e9e178271560a91b82c3f612b58",
            "0x1c2d82a585dd02b4a77574fb4b213362bdc9bbecaaa3cdc2aeca7841378c6029",
            "0x0000000000000000000000000000000000000000000000000000000000000000"
          ],
          "data": "0x000000000000000000000000c83b139327ba47a9bae64f9fe0672185d85f38e50000000000000000000000000000000000000000000000000000000000000000000000000000000000000000000000000000000000000000000000000000006000000000000000000000000000000000000000000000000000000000000000249b36057c00000000000000000000000057b398b41ae594675bf5fa642c704e64ba07f51600000000000000000000000000000000000000000000000000000000",
          "blockHash": "0x332a19199a8743c07bc51eaeb6b8d221e03535499cc7cf8287b803feae423d3e",
          "blockNumber": "0x7d7519",
          "blockTimestamp": "0x68113fbc",
          "transactionHash": "0xa02d5435ffca01e6c0466d67fd277fc4fb0605222130c8593b4ae8a6c11ee873",
          "transactionIndex": "0x58",
          "logIndex": "0xa8",
          "removed": false
        },
        {
          "address": "0x51511bed41dd4d3cdec574f85b6ebba123b9b1d1",
          "topics": [
            "0x712ae1383f79ac853f8d882153778e0260ef8f03b504e2866e0593e04d2b291f"
          ],
          "data": "0xcae7ca511b127bc9184a2b605c7d6ebf47a649c5ed1f8d09037a89aaa41fb986",
          "blockHash": "0x332a19199a8743c07bc51eaeb6b8d221e03535499cc7cf8287b803feae423d3e",
          "blockNumber": "0x7d7519",
          "blockTimestamp": "0x68113fbc",
          "transactionHash": "0xa02d5435ffca01e6c0466d67fd277fc4fb0605222130c8593b4ae8a6c11ee873",
          "transactionIndex": "0x58",
          "logIndex": "0xa9",
          "removed": false
        }
      ],
      "logsBloom": "0x00000000080000000000000000000000000000000000000000000000000000000000000000000000000000000000000000000000000800000000020000000008000000000200000000000000000000000000004000000000000000000000002800000000020000800000000000040800000001000000008000000000000000000000004000004100000000000000000000000000000100800000000000000000000000000120000000000000000000000000000000000000000020000000000000008010000000080000000000000000000000000000000800000000400020000000000000000000001000000000000000000000000000000000000008000000",
      "type": "0x2",
      "transactionHash": "0xa02d5435ffca01e6c0466d67fd277fc4fb0605222130c8593b4ae8a6c11ee873",
      "transactionIndex": "0x58",
      "blockHash": "0x332a19199a8743c07bc51eaeb6b8d221e03535499cc7cf8287b803feae423d3e",
      "blockNumber": "0x7d7519",
      "gasUsed": "0x2d287",
      "effectiveGasPrice": "0x416dce",
      "from": "0x6698bf15be0abbdf4b0dcd60d97fce7461dd9c1b",
      "to": "0x51511bed41dd4d3cdec574f85b6ebba123b9b1d1",
      "contractAddress": null
    }
  ],
  "libraries": [],
  "pending": [],
  "returns": {},
  "timestamp": 1745960894,
  "chain": 11155111,
  "commit": "53e984e"
}