{
  "transactions": [
    {
      "hash": "0x1bb929ea9c4dce44606087854853a3c856702f1503427b83283e24955afbd4e5",
      "transactionType": "CALL",
      "contractName": null,
      "contractAddress": "0x51511bed41dd4d3cdec574f85b6ebba123b9b1d1",
      "function": "execute(address[],uint256[],bytes[],bytes32)",
      "arguments": [
        "[0xc83b139327BA47a9BAe64f9Fe0672185d85F38e5]",
        "[0]",
        "[0x9b36057c000000000000000000000000610178da211fef7d417bc0e6fed39f05609ad788]",
        "0xa0054639bec23381891d308fdead5d736656ea3976802017184ea0cc8b26ebe3"
      ],
      "transaction": {
        "from": "0x6698bf15be0abbdf4b0dcd60d97fce7461dd9c1b",
        "to": "0x51511bed41dd4d3cdec574f85b6ebba123b9b1d1",
        "gas": "0x48262",
        "value": "0x0",
        "input": "0x2656227d000000000000000000000000000000000000000000000000000000000000008000000000000000000000000000000000000000000000000000000000000000c00000000000000000000000000000000000000000000000000000000000000100a0054639bec23381891d308fdead5d736656ea3976802017184ea0cc8b26ebe30000000000000000000000000000000000000000000000000000000000000001000000000000000000000000c83b139327ba47a9bae64f9fe0672185d85f38e5000000000000000000000000000000000000000000000000000000000000000100000000000000000000000000000000000000000000000000000000000000000000000000000000000000000000000000000000000000000000000000000001000000000000000000000000000000000000000000000000000000000000002000000000000000000000000000000000000000000000000000000000000000249b36057c000000000000000000000000610178da211fef7d417bc0e6fed39f05609ad78800000000000000000000000000000000000000000000000000000000",
        "nonce": "0x21",
        "chainId": "0xaa36a7"
      },
      "additionalContracts": [],
      "isFixedGasLimit": false
    }
  ],
  "receipts": [
    {
      "status": "0x1",
      "cumulativeGasUsed": "0xdad198",
      "logs": [
        {
          "address": "0xc83b139327ba47a9bae64f9fe0672185d85f38e5",
          "topics": [
            "0x076eada2b266f926d3ecb187dece20428d68db62016c04bea8ccb92679f788de",
            "0x000000000000000000000000610178da211fef7d417bc0e6fed39f05609ad788",
            "0x0000000000000000000000000232e7a35d64d60db0617a02e42897c8f41ba4a3"
          ],
          "data": "0x",
          "blockHash": "0xc8fe76682ca4832bbdcacca4fb742fbbf05da34bf89b8a94faa1b3d378a7350a",
          "blockNumber": "0x7d4f70",
          "blockTimestamp": "0x680f5b30",
          "transactionHash": "0x1bb929ea9c4dce44606087854853a3c856702f1503427b83283e24955afbd4e5",
          "transactionIndex": "0x75",
          "logIndex": "0xee",
          "removed": false
        },
        {
          "address": "0x0232e7a35d64d60db0617a02e42897c8f41ba4a3",
          "topics": [
            "0xc2617efa69bab66782fa219543714338489c4e9e178271560a91b82c3f612b58",
            "0xb6562e477fa87a1bab0c9e416bafe040d10a95fbc92f482f0f94b06ace533648",
            "0x0000000000000000000000000000000000000000000000000000000000000000"
          ],
          "data": "0x000000000000000000000000c83b139327ba47a9bae64f9fe0672185d85f38e50000000000000000000000000000000000000000000000000000000000000000000000000000000000000000000000000000000000000000000000000000006000000000000000000000000000000000000000000000000000000000000000249b36057c000000000000000000000000610178da211fef7d417bc0e6fed39f05609ad78800000000000000000000000000000000000000000000000000000000",
          "blockHash": "0xc8fe76682ca4832bbdcacca4fb742fbbf05da34bf89b8a94faa1b3d378a7350a",
          "blockNumber": "0x7d4f70",
          "blockTimestamp": "0x680f5b30",
          "transactionHash": "0x1bb929ea9c4dce44606087854853a3c856702f1503427b83283e24955afbd4e5",
          "transactionIndex": "0x75",
          "logIndex": "0xef",
          "removed": false
        },
        {
          "address": "0x51511bed41dd4d3cdec574f85b6ebba123b9b1d1",
          "topics": [
            "0x712ae1383f79ac853f8d882153778e0260ef8f03b504e2866e0593e04d2b291f"
          ],
          "data": "0xb533ba5487b2dcc78245f6b4b68e7c500238728479337540ba1f6e60710787d8",
          "blockHash": "0xc8fe76682ca4832bbdcacca4fb742fbbf05da34bf89b8a94faa1b3d378a7350a",
          "blockNumber": "0x7d4f70",
          "blockTimestamp": "0x680f5b30",
          "transactionHash": "0x1bb929ea9c4dce44606087854853a3c856702f1503427b83283e24955afbd4e5",
          "transactionIndex": "0x75",
          "logIndex": "0xf0",
          "removed": false
        }
      ],
      "logsBloom": "0x00000000000000000000000000020000000000000000000000000000000000200000000000000000000000000000000000000000000800000000020000000008000000000200000000000000000000000000004000040000000001000000002000000000020000000000000000040800000001000000008000000000000000000000000000000100000000000000000000000000000100800000000000000000000000000120000000020000000000000000000000000000000020000000000000008010000000080000000000000000000000000000000000000000400020000000000000000000001000000000000000000000000000000000000008001000",
      "type": "0x2",
      "transactionHash": "0x1bb929ea9c4dce44606087854853a3c856702f1503427b83283e24955afbd4e5",
      "transactionIndex": "0x75",
      "blockHash": "0xc8fe76682ca4832bbdcacca4fb742fbbf05da34bf89b8a94faa1b3d378a7350a",
      "blockNumber": "0x7d4f70",
      "gasUsed": "0x31553",
      "effectiveGasPrice": "0x4f2a7d19b",
      "from": "0x6698bf15be0abbdf4b0dcd60d97fce7461dd9c1b",
      "to": "0x51511bed41dd4d3cdec574f85b6ebba123b9b1d1",
      "contractAddress": null
    }
  ],
  "libraries": [],
  "pending": [],
  "returns": {},
  "timestamp": 1745836849,
  "chain": 11155111,
  "commit": "0d0851a"
}