{
  "transactions": [
    {
      "hash": "0x123b2d314bc2727a527389d4b10c511fcb04b04622637022b6ff21b03621dffb",
      "transactionType": "CALL",
      "contractName": "GameRegistryGovernor",
      "contractAddress": "0x51511bed41dd4d3cdec574f85b6ebba123b9b1d1",
      "function": "castVote(uint256,uint8)",
      "arguments": [
        "17499260931131244014273677813664875414005884160671296600129838527249203689946",
        "1"
      ],
      "transaction": {
        "from": "0x6698bf15be0abbdf4b0dcd60d97fce7461dd9c1b",
        "to": "0x51511bed41dd4d3cdec574f85b6ebba123b9b1d1",
        "gas": "0x1dc52",
        "value": "0x0",
        "input": "0x5678138826b03b0ec848cffb8407b13437c83217fad864184eab8943ae0cd20687a979da0000000000000000000000000000000000000000000000000000000000000001",
        "nonce": "0x28",
        "chainId": "0xaa36a7"
      },
      "additionalContracts": [],
      "isFixedGasLimit": false
    }
  ],
  "receipts": [
    {
      "status": "0x1",
      "cumulativeGasUsed": "0xf7aabf",
      "logs": [
        {
          "address": "0x51511bed41dd4d3cdec574f85b6ebba123b9b1d1",
          "topics": [
            "0xb8e138887d0aa13bab447e82de9d5c1777041ecd21ca36ba824ff1e6c07ddda4",
            "0x0000000000000000000000006698bf15be0abbdf4b0dcd60d97fce7461dd9c1b"
          ],
          "data": "0x26b03b0ec848cffb8407b13437c83217fad864184eab8943ae0cd20687a979da000000000000000000000000000000000000000000000000000000000000000100000000000000000000000000000000000000000000d3c21bcecceda100000000000000000000000000000000000000000000000000000000000000000000800000000000000000000000000000000000000000000000000000000000000000",
          "blockHash": "0xfa2f2d584449a5562eca83017b71cf4027e3ee71b06179f0688c67e93fb94928",
          "blockNumber": "0x7d581c",
          "blockTimestamp": "0x680fca78",
          "transactionHash": "0x123b2d314bc2727a527389d4b10c511fcb04b04622637022b6ff21b03621dffb",
          "transactionIndex": "0x7f",
          "logIndex": "0x124",
          "removed": false
        }
      ],
      "logsBloom": "0x00008000000000000000000000000000000000000000000002000010000000000000000000000000000000000000000000000000000000000000000000000008000000000200000000000000000000000000000000000000000000000000000000000000080000000000000000000000000000000000008000000000000000000000000000000000000000040400000000000000000000000000000000000000000000000000000000000000000000000000000000000000000000000000000000000000000000000000000000000000000000000000000000000000000000000000000000000000000000000000000000000000000000000000000000000000",
      "type": "0x2",
      "transactionHash": "0x123b2d314bc2727a527389d4b10c511fcb04b04622637022b6ff21b03621dffb",
      "transactionIndex": "0x7f",
      "blockHash": "0xfa2f2d584449a5562eca83017b71cf4027e3ee71b06179f0688c67e93fb94928",
      "blockNumber": "0x7d581c",
      "gasUsed": "0x145b1",
      "effectiveGasPrice": "0x3e121794",
      "from": "0x6698bf15be0abbdf4b0dcd60d97fce7461dd9c1b",
      "to": "0x51511bed41dd4d3cdec574f85b6ebba123b9b1d1",
      "contractAddress": null
    }
  ],
  "libraries": [],
  "pending": [],
  "returns": {},
  "timestamp": 1745865338,
  "chain": 11155111,
  "commit": "0d0851a"
}