{
  "transactions": [
    {
      "hash": "0x7ce0bc7017659119962226ef2032431d14d324d3cc4775b13620c96a5dc26f65",
      "transactionType": "CALL",
      "contractName": "GameRegistryGovernor",
      "contractAddress": "0x51511bed41dd4d3cdec574f85b6ebba123b9b1d1",
      "function": "castVote(uint256,uint8)",
      "arguments": [
        "91776733425152384525863571714973239147901866613722673160390968849259422529926",
        "1"
      ],
      "transaction": {
        "from": "0x6698bf15be0abbdf4b0dcd60d97fce7461dd9c1b",
        "to": "0x51511bed41dd4d3cdec574f85b6ebba123b9b1d1",
        "gas": "0x1dc52",
        "value": "0x0",
        "input": "0x56781388cae7ca511b127bc9184a2b605c7d6ebf47a649c5ed1f8d09037a89aaa41fb9860000000000000000000000000000000000000000000000000000000000000001",
        "nonce": "0x27",
        "chainId": "0xaa36a7"
      },
      "additionalContracts": [],
      "isFixedGasLimit": false
    }
  ],
  "receipts": [
    {
      "status": "0x1",
      "cumulativeGasUsed": "0xd6e382",
      "logs": [
        {
          "address": "0x51511bed41dd4d3cdec574f85b6ebba123b9b1d1",
          "topics": [
            "0xb8e138887d0aa13bab447e82de9d5c1777041ecd21ca36ba824ff1e6c07ddda4",
            "0x0000000000000000000000006698bf15be0abbdf4b0dcd60d97fce7461dd9c1b"
          ],
          "data": "0xcae7ca511b127bc9184a2b605c7d6ebf47a649c5ed1f8d09037a89aaa41fb986000000000000000000000000000000000000000000000000000000000000000100000000000000000000000000000000000000000000d3c21bcecceda100000000000000000000000000000000000000000000000000000000000000000000800000000000000000000000000000000000000000000000000000000000000000",
          "blockHash": "0xa9af7137491f4975f2fc3cdb10511582571e8cc3e0b56fe564fcc0a37224819a",
          "blockNumber": "0x7d581b",
          "blockTimestamp": "0x680fca6c",
          "transactionHash": "0x7ce0bc7017659119962226ef2032431d14d324d3cc4775b13620c96a5dc26f65",
          "transactionIndex": "0x8a",
          "logIndex": "0x114",
          "removed": false
        }
      ],
      "logsBloom": "0x00008000000000000000000000000000000000000000000002000010000000000000000000000000000000000000000000000000000000000000000000000008000000000200000000000000000000000000000000000000000000000000000000000000080000000000000000000000000000000000008000000000000000000000000000000000000000040400000000000000000000000000000000000000000000000000000000000000000000000000000000000000000000000000000000000000000000000000000000000000000000000000000000000000000000000000000000000000000000000000000000000000000000000000000000000000",
      "type": "0x2",
      "transactionHash": "0x7ce0bc7017659119962226ef2032431d14d324d3cc4775b13620c96a5dc26f65",
      "transactionIndex": "0x8a",
      "blockHash": "0xa9af7137491f4975f2fc3cdb10511582571e8cc3e0b56fe564fcc0a37224819a",
      "blockNumber": "0x7d581b",
      "gasUsed": "0x145b1",
      "effectiveGasPrice": "0x3d4598cd",
      "from": "0x6698bf15be0abbdf4b0dcd60d97fce7461dd9c1b",
      "to": "0x51511bed41dd4d3cdec574f85b6ebba123b9b1d1",
      "contractAddress": null
    }
  ],
  "libraries": [],
  "pending": [],
  "returns": {},
  "timestamp": 1745865326,
  "chain": 11155111,
  "commit": "0d0851a"
}