{
  "transactions": [
    {
      "hash": "0x0dbb34e1cd80e3a5772fb850f954fa5567091132dd4f8aef4168bbbe472ba45c",
      "transactionType": "CALL",
      "contractName": "GameRegistryGovernor",
      "contractAddress": "0x51511bed41dd4d3cdec574f85b6ebba123b9b1d1",
      "function": "castVote(uint256,uint8)",
      "arguments": [
        "81960020797621676088661914892146987227823209591873718411238054489176093984728",
        "1"
      ],
      "transaction": {
        "from": "0x6698bf15be0abbdf4b0dcd60d97fce7461dd9c1b",
        "to": "0x51511bed41dd4d3cdec574f85b6ebba123b9b1d1",
        "gas": "0x1dc52",
        "value": "0x0",
        "input": "0x56781388b533ba5487b2dcc78245f6b4b68e7c500238728479337540ba1f6e60710787d80000000000000000000000000000000000000000000000000000000000000001",
        "nonce": "0x1d",
        "chainId": "0xaa36a7"
      },
      "additionalContracts": [],
      "isFixedGasLimit": false
    }
  ],
  "receipts": [
    {
      "status": "0x1",
      "cumulativeGasUsed": "0xa97806",
      "logs": [
        {
          "address": "0x51511bed41dd4d3cdec574f85b6ebba123b9b1d1",
          "topics": [
            "0xb8e138887d0aa13bab447e82de9d5c1777041ecd21ca36ba824ff1e6c07ddda4",
            "0x0000000000000000000000006698bf15be0abbdf4b0dcd60d97fce7461dd9c1b"
          ],
          "data": "0xb533ba5487b2dcc78245f6b4b68e7c500238728479337540ba1f6e60710787d8000000000000000000000000000000000000000000000000000000000000000100000000000000000000000000000000000000000000d3c21bcecceda100000000000000000000000000000000000000000000000000000000000000000000800000000000000000000000000000000000000000000000000000000000000000",
          "blockHash": "0x09c55a4b226c453bdce72c556105f46f3f93a8ee4f5328b50722124db9607b60",
          "blockNumber": "0x7d33ce",
          "blockTimestamp": "0x680df84c",
          "transactionHash": "0x0dbb34e1cd80e3a5772fb850f954fa5567091132dd4f8aef4168bbbe472ba45c",
          "transactionIndex": "0x64",
          "logIndex": "0xc1",
          "removed": false
        }
      ],
      "logsBloom": "0x00008000000000000000000000000000000000000000000002000010000000000000000000000000000000000000000000000000000000000000000000000008000000000200000000000000000000000000000000000000000000000000000000000000080000000000000000000000000000000000008000000000000000000000000000000000000000040400000000000000000000000000000000000000000000000000000000000000000000000000000000000000000000000000000000000000000000000000000000000000000000000000000000000000000000000000000000000000000000000000000000000000000000000000000000000000",
      "type": "0x2",
      "transactionHash": "0x0dbb34e1cd80e3a5772fb850f954fa5567091132dd4f8aef4168bbbe472ba45c",
      "transactionIndex": "0x64",
      "blockHash": "0x09c55a4b226c453bdce72c556105f46f3f93a8ee4f5328b50722124db9607b60",
      "blockNumber": "0x7d33ce",
      "gasUsed": "0x145b1",
      "effectiveGasPrice": "0x6f4de506e",
      "from": "0x6698bf15be0abbdf4b0dcd60d97fce7461dd9c1b",
      "to": "0x51511bed41dd4d3cdec574f85b6ebba123b9b1d1",
      "contractAddress": null
    }
  ],
  "libraries": [],
  "pending": [],
  "returns": {},
  "timestamp": 1745745997,
  "chain": 11155111,
  "commit": "28c6100"
}