{
  "transactions": [
    {
      "hash": "0x403c151e9d7d094a3c4f4225f9f0427bf3814d4bb851567e11144e7b48f4a49b",
      "transactionType": "CALL",
      "contractName": "GameRegistryGovernor",
      "contractAddress": "0x51511bed41dd4d3cdec574f85b6ebba123b9b1d1",
      "function": "propose(address[],uint256[],bytes[],string)",
      "arguments": [
        "[0xc83b139327BA47a9BAe64f9Fe0672185d85F38e5]",
        "[0]",
        "[0x9b36057c000000000000000000000000610178da211fef7d417bc0e6fed39f05609ad788]",
        "Register RPGame in the GameRegistry. Timestamp:1745744844"
      ],
      "transaction": {
        "from": "0x6698bf15be0abbdf4b0dcd60d97fce7461dd9c1b",
        "to": "0x51511bed41dd4d3cdec574f85b6ebba123b9b1d1",
        "gas": "0x1783d",
        "value": "0x0",
        "input": "0x7d5e81e2000000000000000000000000000000000000000000000000000000000000008000000000000000000000000000000000000000000000000000000000000000c0000000000000000000000000000000000000000000000000000000000000010000000000000000000000000000000000000000000000000000000000000001a00000000000000000000000000000000000000000000000000000000000000001000000000000000000000000c83b139327ba47a9bae64f9fe0672185d85f38e5000000000000000000000000000000000000000000000000000000000000000100000000000000000000000000000000000000000000000000000000000000000000000000000000000000000000000000000000000000000000000000000001000000000000000000000000000000000000000000000000000000000000002000000000000000000000000000000000000000000000000000000000000000249b36057c000000000000000000000000610178da211fef7d417bc0e6fed39f05609ad788000000000000000000000000000000000000000000000000000000000000000000000000000000000000000000000000000000000000000000000039526567697374657220525047616d6520696e207468652047616d6552656769737472792e2054696d657374616d703a3137343537343438343400000000000000",
        "nonce": "0x17",
        "chainId": "0xaa36a7"
      },
      "additionalContracts": [],
      "isFixedGasLimit": false
    },
    {
      "hash": "0xd1aa49e52235e56d504c7da74755f4a165930a66a271c8da23e0b63b540fbb02",
      "transactionType": "CALL",
      "contractName": "GameRegistryGovernor",
      "contractAddress": "0x51511bed41dd4d3cdec574f85b6ebba123b9b1d1",
      "function": "propose(address[],uint256[],bytes[],string)",
      "arguments": [
        "[0xc83b139327BA47a9BAe64f9Fe0672185d85F38e5]",
        "[0]",
        "[0x64462142000000000000000000000000610178da211fef7d417bc0e6fed39f05609ad7880000000000000000000000008a791620dd6260079bf849dc5567adc3f2fdc3180000000000000000000000000000000000000000000000000000000000000060000000000000000000000000000000000000000000000000000000000000000294b409595cf2c8850162f935221c0233317005c58cfee9bd19a88aafb8f49d97da72c8430501db9a62ea78b2b0f1a53b2c2d3f9755c1972a608f2a04d6029875]",
        "Grant sword attributes permissions to RPGame. Timestamp:1745744844"
      ],
      "transaction": {
        "from": "0x6698bf15be0abbdf4b0dcd60d97fce7461dd9c1b",
        "to": "0x51511bed41dd4d3cdec574f85b6ebba123b9b1d1",
        "gas": "0x18f62",
        "value": "0x0",
        "input": "0x7d5e81e2000000000000000000000000000000000000000000000000000000000000008000000000000000000000000000000000000000000000000000000000000000c0000000000000000000000000000000000000000000000000000000000000010000000000000000000000000000000000000000000000000000000000000002400000000000000000000000000000000000000000000000000000000000000001000000000000000000000000c83b139327ba47a9bae64f9fe0672185d85f38e5000000000000000000000000000000000000000000000000000000000000000100000000000000000000000000000000000000000000000000000000000000000000000000000000000000000000000000000000000000000000000000000001000000000000000000000000000000000000000000000000000000000000002000000000000000000000000000000000000000000000000000000000000000c464462142000000000000000000000000610178da211fef7d417bc0e6fed39f05609ad7880000000000000000000000008a791620dd6260079bf849dc5567adc3f2fdc3180000000000000000000000000000000000000000000000000000000000000060000000000000000000000000000000000000000000000000000000000000000294b409595cf2c8850162f935221c0233317005c58cfee9bd19a88aafb8f49d97da72c8430501db9a62ea78b2b0f1a53b2c2d3f9755c1972a608f2a04d60298750000000000000000000000000000000000000000000000000000000000000000000000000000000000000000000000000000000000000000000000424772616e742073776f72642061747472696275746573207065726d697373696f6e7320746f20525047616d652e2054696d657374616d703a31373435373434383434000000000000000000000000000000000000000000000000000000000000",
        "nonce": "0x18",
        "chainId": "0xaa36a7"
      },
      "additionalContracts": [],
      "isFixedGasLimit": false
    }
  ],
  "receipts": [
    {
      "status": "0x1",
      "cumulativeGasUsed": "0xcd87f0",
      "logs": [
        {
          "address": "0x51511bed41dd4d3cdec574f85b6ebba123b9b1d1",
          "topics": [
            "0x7d84a6263ae0d98d3329bd7b46bb4e8d6f98cd35a7adb45c274c8b7fd5ebd5e0"
          ],
          "data": "0x92f4e78a1a89be87e75ca408bfefc4332fbee87091a313717fdcd26acc1e70d80000000000000000000000006698bf15be0abbdf4b0dcd60d97fce7461dd9c1b0000000000000000000000000000000000000000000000000000000000000120000000000000000000000000000000000000000000000000000000000000016000000000000000000000000000000000000000000000000000000000000001a0000000000000000000000000000000000000000000000000000000000000020000000000000000000000000000000000000000000000000000000000007d337500000000000000000000000000000000000000000000000000000000007d337f00000000000000000000000000000000000000000000000000000000000002a00000000000000000000000000000000000000000000000000000000000000001000000000000000000000000c83b139327ba47a9bae64f9fe0672185d85f38e5000000000000000000000000000000000000000000000000000000000000000100000000000000000000000000000000000000000000000000000000000000000000000000000000000000000000000000000000000000000000000000000001000000000000000000000000000000000000000000000000000000000000002000000000000000000000000000000000000000000000000000000000000000000000000000000000000000000000000000000000000000000000000000000001000000000000000000000000000000000000000000000000000000000000002000000000000000000000000000000000000000000000000000000000000000249b36057c000000000000000000000000610178da211fef7d417bc0e6fed39f05609ad788000000000000000000000000000000000000000000000000000000000000000000000000000000000000000000000000000000000000000000000039526567697374657220525047616d6520696e207468652047616d6552656769737472792e2054696d657374616d703a3137343537343438343400000000000000",
          "blockHash": "0x9c5f8fc92ec0a79cfc2207eff4af0ca9423152e5d01126958579d263b709e38b",
          "blockNumber": "0x7d3374",
          "blockTimestamp": "0x680df3d8",
          "transactionHash": "0x403c151e9d7d094a3c4f4225f9f0427bf3814d4bb851567e11144e7b48f4a49b",
          "transactionIndex": "0x92",
          "logIndex": "0xe5",
          "removed": false
        }
      ],
      "logsBloom": "0x00000000000000000000000000000000000000000000000000000000000000000000000000000000000000000000000000000000000000000000000000000008000000000202000000000000000000000000000000000000000000000000000000000000000000000000000000000000000000000000008000000000000000000000000000000000000000000000000000000000000000000000000000000000080000000000000000000000000000000000000000000000000000000000000200000000000000000000000000000000000000000000000000000000000000000000000000000000000000000000000000000000000000000000000000000000",
      "type": "0x2",
      "transactionHash": "0x403c151e9d7d094a3c4f4225f9f0427bf3814d4bb851567e11144e7b48f4a49b",
      "transactionIndex": "0x92",
      "blockHash": "0x9c5f8fc92ec0a79cfc2207eff4af0ca9423152e5d01126958579d263b709e38b",
      "blockNumber": "0x7d3374",
      "gasUsed": "0x11064",
      "effectiveGasPrice": "0x9edf1d7fa",
      "from": "0x6698bf15be0abbdf4b0dcd60d97fce7461dd9c1b",
      "to": "0x51511bed41dd4d3cdec574f85b6ebba123b9b1d1",
      "contractAddress": null
    },
    {
      "status": "0x1",
      "cumulativeGasUsed": "0xcea916",
      "logs": [
        {
          "address": "0x51511bed41dd4d3cdec574f85b6ebba123b9b1d1",
          "topics": [
            "0x7d84a6263ae0d98d3329bd7b46bb4e8d6f98cd35a7adb45c274c8b7fd5ebd5e0"
          ],
          "data": "0x0fdc6779abce2ea116b4e7e74fce37f124de719410fbf8197a500415f214a4b00000000000000000000000006698bf15be0abbdf4b0dcd60d97fce7461dd9c1b0000000000000000000000000000000000000000000000000000000000000120000000000000000000000000000000000000000000000000000000000000016000000000000000000000000000000000000000000000000000000000000001a0000000000000000000000000000000000000000000000000000000000000020000000000000000000000000000000000000000000000000000000000007d337500000000000000000000000000000000000000000000000000000000007d337f00000000000000000000000000000000000000000000000000000000000003400000000000000000000000000000000000000000000000000000000000000001000000000000000000000000c83b139327ba47a9bae64f9fe0672185d85f38e5000000000000000000000000000000000000000000000000000000000000000100000000000000000000000000000000000000000000000000000000000000000000000000000000000000000000000000000000000000000000000000000001000000000000000000000000000000000000000000000000000000000000002000000000000000000000000000000000000000000000000000000000000000000000000000000000000000000000000000000000000000000000000000000001000000000000000000000000000000000000000000000000000000000000002000000000000000000000000000000000000000000000000000000000000000c464462142000000000000000000000000610178da211fef7d417bc0e6fed39f05609ad7880000000000000000000000008a791620dd6260079bf849dc5567adc3f2fdc3180000000000000000000000000000000000000000000000000000000000000060000000000000000000000000000000000000000000000000000000000000000294b409595cf2c8850162f935221c0233317005c58cfee9bd19a88aafb8f49d97da72c8430501db9a62ea78b2b0f1a53b2c2d3f9755c1972a608f2a04d60298750000000000000000000000000000000000000000000000000000000000000000000000000000000000000000000000000000000000000000000000424772616e742073776f72642061747472696275746573207065726d697373696f6e7320746f20525047616d652e2054696d657374616d703a31373435373434383434000000000000000000000000000000000000000000000000000000000000",
          "blockHash": "0x9c5f8fc92ec0a79cfc2207eff4af0ca9423152e5d01126958579d263b709e38b",
          "blockNumber": "0x7d3374",
          "blockTimestamp": "0x680df3d8",
          "transactionHash": "0xd1aa49e52235e56d504c7da74755f4a165930a66a271c8da23e0b63b540fbb02",
          "transactionIndex": "0x93",
          "logIndex": "0xe6",
          "removed": false
        }
      ],
      "logsBloom": "0x00000000000000000000000000000000000000000000000000000000000000000000000000000000000000000000000000000000000000000000000000000008000000000202000000000000000000000000000000000000000000000000000000000000000000000000000000000000000000000000008000000000000000000000000000000000000000000000000000000000000000000000000000000000080000000000000000000000000000000000000000000000000000000000000200000000000000000000000000000000000000000000000000000000000000000000000000000000000000000000000000000000000000000000000000000000",
      "type": "0x2",
      "transactionHash": "0xd1aa49e52235e56d504c7da74755f4a165930a66a271c8da23e0b63b540fbb02",
      "transactionIndex": "0x93",
      "blockHash": "0x9c5f8fc92ec0a79cfc2207eff4af0ca9423152e5d01126958579d263b709e38b",
      "blockNumber": "0x7d3374",
      "gasUsed": "0x12126",
      "effectiveGasPrice": "0x9edf1d7fa",
      "from": "0x6698bf15be0abbdf4b0dcd60d97fce7461dd9c1b",
      "to": "0x51511bed41dd4d3cdec574f85b6ebba123b9b1d1",
      "contractAddress": null
    }
  ],
  "libraries": [],
  "pending": [],
  "returns": {},
  "timestamp": 1745744861,
  "chain": 11155111,
  "commit": "28c6100"
}