{
  "transactions": [
    {
      "hash": "0x0c6497a32bfdf7a55c3f2ece1e1b8ae1ed6adf3e2e11590453eeea785c081440",
      "transactionType": "CALL",
      "contractName": "GameRegistryGovernor",
      "contractAddress": "0x51511bed41dd4d3cdec574f85b6ebba123b9b1d1",
      "function": "propose(address[],uint256[],bytes[],string)",
      "arguments": [
        "[0xc83b139327BA47a9BAe64f9Fe0672185d85F38e5]",
        "[0]",
        "[0x9b36057c000000000000000000000000610178da211fef7d417bc0e6fed39f05609ad788]",
        "Register RPGame in the GameRegistry. Timestamp:1745745900"
      ],
      "transaction": {
        "from": "0x6698bf15be0abbdf4b0dcd60d97fce7461dd9c1b",
        "to": "0x51511bed41dd4d3cdec574f85b6ebba123b9b1d1",
        "gas": "0x1783d",
        "value": "0x0",
        "input": "0x7d5e81e2000000000000000000000000000000000000000000000000000000000000008000000000000000000000000000000000000000000000000000000000000000c0000000000000000000000000000000000000000000000000000000000000010000000000000000000000000000000000000000000000000000000000000001a00000000000000000000000000000000000000000000000000000000000000001000000000000000000000000c83b139327ba47a9bae64f9fe0672185d85f38e5000000000000000000000000000000000000000000000000000000000000000100000000000000000000000000000000000000000000000000000000000000000000000000000000000000000000000000000000000000000000000000000001000000000000000000000000000000000000000000000000000000000000002000000000000000000000000000000000000000000000000000000000000000249b36057c000000000000000000000000610178da211fef7d417bc0e6fed39f05609ad788000000000000000000000000000000000000000000000000000000000000000000000000000000000000000000000000000000000000000000000039526567697374657220525047616d6520696e207468652047616d6552656769737472792e2054696d657374616d703a3137343537343539303000000000000000",
        "nonce": "0x1b",
        "chainId": "0xaa36a7"
      },
      "additionalContracts": [],
      "isFixedGasLimit": false
    },
    {
      "hash": "0xba564b12c51bb5dce2eef5c891c0382e506363fc91a1f7e2fd4314fb351bd6b0",
      "transactionType": "CALL",
      "contractName": "GameRegistryGovernor",
      "contractAddress": "0x51511bed41dd4d3cdec574f85b6ebba123b9b1d1",
      "function": "propose(address[],uint256[],bytes[],string)",
      "arguments": [
        "[0xc83b139327BA47a9BAe64f9Fe0672185d85F38e5]",
        "[0]",
        "[0x64462142000000000000000000000000610178da211fef7d417bc0e6fed39f05609ad7880000000000000000000000008a791620dd6260079bf849dc5567adc3f2fdc3180000000000000000000000000000000000000000000000000000000000000060000000000000000000000000000000000000000000000000000000000000000294b409595cf2c8850162f935221c0233317005c58cfee9bd19a88aafb8f49d97da72c8430501db9a62ea78b2b0f1a53b2c2d3f9755c1972a608f2a04d6029875]",
        "Grant sword attributes permissions to RPGame. Timestamp:1745745900"
      ],
      "transaction": {
        "from": "0x6698bf15be0abbdf4b0dcd60d97fce7461dd9c1b",
        "to": "0x51511bed41dd4d3cdec574f85b6ebba123b9b1d1",
        "gas": "0x18f62",
        "value": "0x0",
        "input": "0x7d5e81e2000000000000000000000000000000000000000000000000000000000000008000000000000000000000000000000000000000000000000000000000000000c0000000000000000000000000000000000000000000000000000000000000010000000000000000000000000000000000000000000000000000000000000002400000000000000000000000000000000000000000000000000000000000000001000000000000000000000000c83b139327ba47a9bae64f9fe0672185d85f38e5000000000000000000000000000000000000000000000000000000000000000100000000000000000000000000000000000000000000000000000000000000000000000000000000000000000000000000000000000000000000000000000001000000000000000000000000000000000000000000000000000000000000002000000000000000000000000000000000000000000000000000000000000000c464462142000000000000000000000000610178da211fef7d417bc0e6fed39f05609ad7880000000000000000000000008a791620dd6260079bf849dc5567adc3f2fdc3180000000000000000000000000000000000000000000000000000000000000060000000000000000000000000000000000000000000000000000000000000000294b409595cf2c8850162f935221c0233317005c58cfee9bd19a88aafb8f49d97da72c8430501db9a62ea78b2b0f1a53b2c2d3f9755c1972a608f2a04d60298750000000000000000000000000000000000000000000000000000000000000000000000000000000000000000000000000000000000000000000000424772616e742073776f72642061747472696275746573207065726d697373696f6e7320746f20525047616d652e2054696d657374616d703a31373435373435393030000000000000000000000000000000000000000000000000000000000000",
        "nonce": "0x1c",
        "chainId": "0xaa36a7"
      },
      "additionalContracts": [],
      "isFixedGasLimit": false
    }
  ],
  "receipts": [
    {
      "status": "0x1",
      "cumulativeGasUsed": "0xb422e4",
      "logs": [
        {
          "address": "0x51511bed41dd4d3cdec574f85b6ebba123b9b1d1",
          "topics": [
            "0x7d84a6263ae0d98d3329bd7b46bb4e8d6f98cd35a7adb45c274c8b7fd5ebd5e0"
          ],
          "data": "0xb533ba5487b2dcc78245f6b4b68e7c500238728479337540ba1f6e60710787d80000000000000000000000006698bf15be0abbdf4b0dcd60d97fce7461dd9c1b0000000000000000000000000000000000000000000000000000000000000120000000000000000000000000000000000000000000000000000000000000016000000000000000000000000000000000000000000000000000000000000001a0000000000000000000000000000000000000000000000000000000000000020000000000000000000000000000000000000000000000000000000000007d33c800000000000000000000000000000000000000000000000000000000007d33d200000000000000000000000000000000000000000000000000000000000002a00000000000000000000000000000000000000000000000000000000000000001000000000000000000000000c83b139327ba47a9bae64f9fe0672185d85f38e5000000000000000000000000000000000000000000000000000000000000000100000000000000000000000000000000000000000000000000000000000000000000000000000000000000000000000000000000000000000000000000000001000000000000000000000000000000000000000000000000000000000000002000000000000000000000000000000000000000000000000000000000000000000000000000000000000000000000000000000000000000000000000000000001000000000000000000000000000000000000000000000000000000000000002000000000000000000000000000000000000000000000000000000000000000249b36057c000000000000000000000000610178da211fef7d417bc0e6fed39f05609ad788000000000000000000000000000000000000000000000000000000000000000000000000000000000000000000000000000000000000000000000039526567697374657220525047616d6520696e207468652047616d6552656769737472792e2054696d657374616d703a3137343537343539303000000000000000",
          "blockHash": "0x2d826b14c88d7101072c9cebc8f0801da8e7118f47fc835efd5a9d173426ff23",
          "blockNumber": "0x7d33c7",
          "blockTimestamp": "0x680df7f8",
          "transactionHash": "0x0c6497a32bfdf7a55c3f2ece1e1b8ae1ed6adf3e2e11590453eeea785c081440",
          "transactionIndex": "0x76",
          "logIndex": "0xe4",
          "removed": false
        }
      ],
      "logsBloom": "0x00000000000000000000000000000000000000000000000000000000000000000000000000000000000000000000000000000000000000000000000000000008000000000202000000000000000000000000000000000000000000000000000000000000000000000000000000000000000000000000008000000000000000000000000000000000000000000000000000000000000000000000000000000000080000000000000000000000000000000000000000000000000000000000000200000000000000000000000000000000000000000000000000000000000000000000000000000000000000000000000000000000000000000000000000000000",
      "type": "0x2",
      "transactionHash": "0x0c6497a32bfdf7a55c3f2ece1e1b8ae1ed6adf3e2e11590453eeea785c081440",
      "transactionIndex": "0x76",
      "blockHash": "0x2d826b14c88d7101072c9cebc8f0801da8e7118f47fc835efd5a9d173426ff23",
      "blockNumber": "0x7d33c7",
      "gasUsed": "0x11064",
      "effectiveGasPrice": "0x7f0f9cc07",
      "from": "0x6698bf15be0abbdf4b0dcd60d97fce7461dd9c1b",
      "to": "0x51511bed41dd4d3cdec574f85b6ebba123b9b1d1",
      "contractAddress": null
    },
    {
      "status": "0x1",
      "cumulativeGasUsed": "0xb5440a",
      "logs": [
        {
          "address": "0x51511bed41dd4d3cdec574f85b6ebba123b9b1d1",
          "topics": [
            "0x7d84a6263ae0d98d3329bd7b46bb4e8d6f98cd35a7adb45c274c8b7fd5ebd5e0"
          ],
          "data": "0xf0d17281127bd55323583d652f12e9b09b72df47a08f2a8ad9e9093dc7755c2c0000000000000000000000006698bf15be0abbdf4b0dcd60d97fce7461dd9c1b0000000000000000000000000000000000000000000000000000000000000120000000000000000000000000000000000000000000000000000000000000016000000000000000000000000000000000000000000000000000000000000001a0000000000000000000000000000000000000000000000000000000000000020000000000000000000000000000000000000000000000000000000000007d33c800000000000000000000000000000000000000000000000000000000007d33d200000000000000000000000000000000000000000000000000000000000003400000000000000000000000000000000000000000000000000000000000000001000000000000000000000000c83b139327ba47a9bae64f9fe0672185d85f38e5000000000000000000000000000000000000000000000000000000000000000100000000000000000000000000000000000000000000000000000000000000000000000000000000000000000000000000000000000000000000000000000001000000000000000000000000000000000000000000000000000000000000002000000000000000000000000000000000000000000000000000000000000000000000000000000000000000000000000000000000000000000000000000000001000000000000000000000000000000000000000000000000000000000000002000000000000000000000000000000000000000000000000000000000000000c464462142000000000000000000000000610178da211fef7d417bc0e6fed39f05609ad7880000000000000000000000008a791620dd6260079bf849dc5567adc3f2fdc3180000000000000000000000000000000000000000000000000000000000000060000000000000000000000000000000000000000000000000000000000000000294b409595cf2c8850162f935221c0233317005c58cfee9bd19a88aafb8f49d97da72c8430501db9a62ea78b2b0f1a53b2c2d3f9755c1972a608f2a04d60298750000000000000000000000000000000000000000000000000000000000000000000000000000000000000000000000000000000000000000000000424772616e742073776f72642061747472696275746573207065726d697373696f6e7320746f20525047616d652e2054696d657374616d703a31373435373435393030000000000000000000000000000000000000000000000000000000000000",
          "blockHash": "0x2d826b14c88d7101072c9cebc8f0801da8e7118f47fc835efd5a9d173426ff23",
          "blockNumber": "0x7d33c7",
          "blockTimestamp": "0x680df7f8",
          "transactionHash": "0xba564b12c51bb5dce2eef5c891c0382e506363fc91a1f7e2fd4314fb351bd6b0",
          "transactionIndex": "0x77",
          "logIndex": "0xe5",
          "removed": false
        }
      ],
      "logsBloom": "0x00000000000000000000000000000000000000000000000000000000000000000000000000000000000000000000000000000000000000000000000000000008000000000202000000000000000000000000000000000000000000000000000000000000000000000000000000000000000000000000008000000000000000000000000000000000000000000000000000000000000000000000000000000000080000000000000000000000000000000000000000000000000000000000000200000000000000000000000000000000000000000000000000000000000000000000000000000000000000000000000000000000000000000000000000000000",
      "type": "0x2",
      "transactionHash": "0xba564b12c51bb5dce2eef5c891c0382e506363fc91a1f7e2fd4314fb351bd6b0",
      "transactionIndex": "0x77",
      "blockHash": "0x2d826b14c88d7101072c9cebc8f0801da8e7118f47fc835efd5a9d173426ff23",
      "blockNumber": "0x7d33c7",
      "gasUsed": "0x12126",
      "effectiveGasPrice": "0x7f0f9cc07",
      "from": "0x6698bf15be0abbdf4b0dcd60d97fce7461dd9c1b",
      "to": "0x51511bed41dd4d3cdec574f85b6ebba123b9b1d1",
      "contractAddress": null
    }
  ],
  "libraries": [],
  "pending": [],
  "returns": {},
  "timestamp": 1745745912,
  "chain": 11155111,
  "commit": "28c6100"
}