{
  "transactions": [
    {
      "hash": "0x6cd16ca08c08088fa83a1d7eb0b1b409503743a70fea8f7f3ce3521399f6d0e6",
      "transactionType": "CALL",
      "contractName": "GameRegistryGovernor",
      "contractAddress": "0x51511bed41dd4d3cdec574f85b6ebba123b9b1d1",
      "function": "propose(address[],uint256[],bytes[],string)",
      "arguments": [
        "[0xc83b139327BA47a9BAe64f9Fe0672185d85F38e5]",
        "[0]",
        "[0x9b36057c00000000000000000000000057b398b41ae594675bf5fa642c704e64ba07f516]",
        "Register GoodGame in the GameRegistry. Timestamp:1745865240"
      ],
      "transaction": {
        "from": "0x6698bf15be0abbdf4b0dcd60d97fce7461dd9c1b",
        "to": "0x51511bed41dd4d3cdec574f85b6ebba123b9b1d1",
        "gas": "0x1785d",
        "value": "0x0",
        "input": "0x7d5e81e2000000000000000000000000000000000000000000000000000000000000008000000000000000000000000000000000000000000000000000000000000000c0000000000000000000000000000000000000000000000000000000000000010000000000000000000000000000000000000000000000000000000000000001a00000000000000000000000000000000000000000000000000000000000000001000000000000000000000000c83b139327ba47a9bae64f9fe0672185d85f38e5000000000000000000000000000000000000000000000000000000000000000100000000000000000000000000000000000000000000000000000000000000000000000000000000000000000000000000000000000000000000000000000001000000000000000000000000000000000000000000000000000000000000002000000000000000000000000000000000000000000000000000000000000000249b36057c00000000000000000000000057b398b41ae594675bf5fa642c704e64ba07f51600000000000000000000000000000000000000000000000000000000000000000000000000000000000000000000000000000000000000000000003b526567697374657220476f6f6447616d6520696e207468652047616d6552656769737472792e2054696d657374616d703a313734353836353234300000000000",
        "nonce": "0x25",
        "chainId": "0xaa36a7"
      },
      "additionalContracts": [],
      "isFixedGasLimit": false
    },
    {
      "hash": "0x93dabca0209374511f3de6784b2fb40e09e8151800e9e9c32a2682dffe7eef29",
      "transactionType": "CALL",
      "contractName": "GameRegistryGovernor",
      "contractAddress": "0x51511bed41dd4d3cdec574f85b6ebba123b9b1d1",
      "function": "propose(address[],uint256[],bytes[],string)",
      "arguments": [
        "[0xc83b139327BA47a9BAe64f9Fe0672185d85F38e5]",
        "[0]",
        "[0x6446214200000000000000000000000057b398b41ae594675bf5fa642c704e64ba07f516000000000000000000000000d0f3ac4f44c545f16bdacb693c71521bc31fc256000000000000000000000000000000000000000000000000000000000000006000000000000000000000000000000000000000000000000000000000000000020615365f5d385e4fe29c28bb271ebfe27d8776c0e78b1eba2a353311412f3c99de5d1fa8a6595003796d9e5b2987cc61048747f1dd20f651054db2aab3d74ec1]",
        "Grant sword attributes permissions to GoodGame. Timestamp:1745865240"
      ],
      "transaction": {
        "from": "0x6698bf15be0abbdf4b0dcd60d97fce7461dd9c1b",
        "to": "0x51511bed41dd4d3cdec574f85b6ebba123b9b1d1",
        "gas": "0x18f82",
        "value": "0x0",
        "input": "0x7d5e81e2000000000000000000000000000000000000000000000000000000000000008000000000000000000000000000000000000000000000000000000000000000c0000000000000000000000000000000000000000000000000000000000000010000000000000000000000000000000000000000000000000000000000000002400000000000000000000000000000000000000000000000000000000000000001000000000000000000000000c83b139327ba47a9bae64f9fe0672185d85f38e5000000000000000000000000000000000000000000000000000000000000000100000000000000000000000000000000000000000000000000000000000000000000000000000000000000000000000000000000000000000000000000000001000000000000000000000000000000000000000000000000000000000000002000000000000000000000000000000000000000000000000000000000000000c46446214200000000000000000000000057b398b41ae594675bf5fa642c704e64ba07f516000000000000000000000000d0f3ac4f44c545f16bdacb693c71521bc31fc256000000000000000000000000000000000000000000000000000000000000006000000000000000000000000000000000000000000000000000000000000000020615365f5d385e4fe29c28bb271ebfe27d8776c0e78b1eba2a353311412f3c99de5d1fa8a6595003796d9e5b2987cc61048747f1dd20f651054db2aab3d74ec10000000000000000000000000000000000000000000000000000000000000000000000000000000000000000000000000000000000000000000000444772616e742073776f72642061747472696275746573207065726d697373696f6e7320746f20476f6f6447616d652e2054696d657374616d703a3137343538363532343000000000000000000000000000000000000000000000000000000000",
        "nonce": "0x26",
        "chainId": "0xaa36a7"
      },
      "additionalContracts": [],
      "isFixedGasLimit": false
    }
  ],
  "receipts": [
    {
      "status": "0x1",
      "cumulativeGasUsed": "0x20e7650",
      "logs": [
        {
          "address": "0x51511bed41dd4d3cdec574f85b6ebba123b9b1d1",
          "topics": [
            "0x7d84a6263ae0d98d3329bd7b46bb4e8d6f98cd35a7adb45c274c8b7fd5ebd5e0"
          ],
          "data": "0xcae7ca511b127bc9184a2b605c7d6ebf47a649c5ed1f8d09037a89aaa41fb9860000000000000000000000006698bf15be0abbdf4b0dcd60d97fce7461dd9c1b0000000000000000000000000000000000000000000000000000000000000120000000000000000000000000000000000000000000000000000000000000016000000000000000000000000000000000000000000000000000000000000001a0000000000000000000000000000000000000000000000000000000000000020000000000000000000000000000000000000000000000000000000000007d581700000000000000000000000000000000000000000000000000000000007d582100000000000000000000000000000000000000000000000000000000000002a00000000000000000000000000000000000000000000000000000000000000001000000000000000000000000c83b139327ba47a9bae64f9fe0672185d85f38e5000000000000000000000000000000000000000000000000000000000000000100000000000000000000000000000000000000000000000000000000000000000000000000000000000000000000000000000000000000000000000000000001000000000000000000000000000000000000000000000000000000000000002000000000000000000000000000000000000000000000000000000000000000000000000000000000000000000000000000000000000000000000000000000001000000000000000000000000000000000000000000000000000000000000002000000000000000000000000000000000000000000000000000000000000000249b36057c00000000000000000000000057b398b41ae594675bf5fa642c704e64ba07f51600000000000000000000000000000000000000000000000000000000000000000000000000000000000000000000000000000000000000000000003b526567697374657220476f6f6447616d6520696e207468652047616d6552656769737472792e2054696d657374616d703a313734353836353234300000000000",
          "blockHash": "0x05e4c969b5309c78039b4de9216829b5171eed70e69d272b627bf015dc38b409",
          "blockNumber": "0x7d5816",
          "blockTimestamp": "0x680fca30",
          "transactionHash": "0x6cd16ca08c08088fa83a1d7eb0b1b409503743a70fea8f7f3ce3521399f6d0e6",
          "transactionIndex": "0x100",
          "logIndex": "0x285",
          "removed": false
        }
      ],
      "logsBloom": "0x00000000000000000000000000000000000000000000000000000000000000000000000000000000000000000000000000000000000000000000000000000008000000000202000000000000000000000000000000000000000000000000000000000000000000000000000000000000000000000000008000000000000000000000000000000000000000000000000000000000000000000000000000000000080000000000000000000000000000000000000000000000000000000000000200000000000000000000000000000000000000000000000000000000000000000000000000000000000000000000000000000000000000000000000000000000",
      "type": "0x2",
      "transactionHash": "0x6cd16ca08c08088fa83a1d7eb0b1b409503743a70fea8f7f3ce3521399f6d0e6",
      "transactionIndex": "0x100",
      "blockHash": "0x05e4c969b5309c78039b4de9216829b5171eed70e69d272b627bf015dc38b409",
      "blockNumber": "0x7d5816",
      "gasUsed": "0x1107c",
      "effectiveGasPrice": "0x326320eb",
      "from": "0x6698bf15be0abbdf4b0dcd60d97fce7461dd9c1b",
      "to": "0x51511bed41dd4d3cdec574f85b6ebba123b9b1d1",
      "contractAddress": null
    },
    {
      "status": "0x1",
      "cumulativeGasUsed": "0x20f978e",
      "logs": [
        {
          "address": "0x51511bed41dd4d3cdec574f85b6ebba123b9b1d1",
          "topics": [
            "0x7d84a6263ae0d98d3329bd7b46bb4e8d6f98cd35a7adb45c274c8b7fd5ebd5e0"
          ],
          "data": "0x26b03b0ec848cffb8407b13437c83217fad864184eab8943ae0cd20687a979da0000000000000000000000006698bf15be0abbdf4b0dcd60d97fce7461dd9c1b0000000000000000000000000000000000000000000000000000000000000120000000000000000000000000000000000000000000000000000000000000016000000000000000000000000000000000000000000000000000000000000001a0000000000000000000000000000000000000000000000000000000000000020000000000000000000000000000000000000000000000000000000000007d581700000000000000000000000000000000000000000000000000000000007d582100000000000000000000000000000000000000000000000000000000000003400000000000000000000000000000000000000000000000000000000000000001000000000000000000000000c83b139327ba47a9bae64f9fe0672185d85f38e5000000000000000000000000000000000000000000000000000000000000000100000000000000000000000000000000000000000000000000000000000000000000000000000000000000000000000000000000000000000000000000000001000000000000000000000000000000000000000000000000000000000000002000000000000000000000000000000000000000000000000000000000000000000000000000000000000000000000000000000000000000000000000000000001000000000000000000000000000000000000000000000000000000000000002000000000000000000000000000000000000000000000000000000000000000c46446214200000000000000000000000057b398b41ae594675bf5fa642c704e64ba07f516000000000000000000000000d0f3ac4f44c545f16bdacb693c71521bc31fc256000000000000000000000000000000000000000000000000000000000000006000000000000000000000000000000000000000000000000000000000000000020615365f5d385e4fe29c28bb271ebfe27d8776c0e78b1eba2a353311412f3c99de5d1fa8a6595003796d9e5b2987cc61048747f1dd20f651054db2aab3d74ec10000000000000000000000000000000000000000000000000000000000000000000000000000000000000000000000000000000000000000000000444772616e742073776f72642061747472696275746573207065726d697373696f6e7320746f20476f6f6447616d652e2054696d657374616d703a3137343538363532343000000000000000000000000000000000000000000000000000000000",
          "blockHash": "0x05e4c969b5309c78039b4de9216829b5171eed70e69d272b627bf015dc38b409",
          "blockNumber": "0x7d5816",
          "blockTimestamp": "0x680fca30",
          "transactionHash": "0x93dabca0209374511f3de6784b2fb40e09e8151800e9e9c32a2682dffe7eef29",
          "transactionIndex": "0x101",
          "logIndex": "0x286",
          "removed": false
        }
      ],
      "logsBloom": "0x00000000000000000000000000000000000000000000000000000000000000000000000000000000000000000000000000000000000000000000000000000008000000000202000000000000000000000000000000000000000000000000000000000000000000000000000000000000000000000000008000000000000000000000000000000000000000000000000000000000000000000000000000000000080000000000000000000000000000000000000000000000000000000000000200000000000000000000000000000000000000000000000000000000000000000000000000000000000000000000000000000000000000000000000000000000",
      "type": "0x2",
      "transactionHash": "0x93dabca0209374511f3de6784b2fb40e09e8151800e9e9c32a2682dffe7eef29",
      "transactionIndex": "0x101",
      "blockHash": "0x05e4c969b5309c78039b4de9216829b5171eed70e69d272b627bf015dc38b409",
      "blockNumber": "0x7d5816",
      "gasUsed": "0x1213e",
      "effectiveGasPrice": "0x326320eb",
      "from": "0x6698bf15be0abbdf4b0dcd60d97fce7461dd9c1b",
      "to": "0x51511bed41dd4d3cdec574f85b6ebba123b9b1d1",
      "contractAddress": null
    }
  ],
  "libraries": [],
  "pending": [],
  "returns": {},
  "timestamp": 1745865265,
  "chain": 11155111,
  "commit": "0d0851a"
}