{
  "transactions": [
    {
      "hash": "0x042756c66cd9948a0ae2c306cf992159e11642c793c6efeec528efc9aab6a188",
      "transactionType": "CALL",
      "contractName": null,
      "contractAddress": "0x51511bed41dd4d3cdec574f85b6ebba123b9b1d1",
      "function": "propose(address[],uint256[],bytes[],string)",
      "arguments": [
        "[0xc83b139327BA47a9BAe64f9Fe0672185d85F38e5]",
        "[0]",
        "[0x9b36057c000000000000000000000000610178da211fef7d417bc0e6fed39f05609ad788]",
        "Register RPGame in the GameRegistry"
      ],
      "transaction": {
        "from": "0x6698bf15be0abbdf4b0dcd60d97fce7461dd9c1b",
        "to": "0x51511bed41dd4d3cdec574f85b6ebba123b9b1d1",
        "gas": "0x18c71",
        "value": "0x0",
        "input": "0x7d5e81e2000000000000000000000000000000000000000000000000000000000000008000000000000000000000000000000000000000000000000000000000000000c0000000000000000000000000000000000000000000000000000000000000010000000000000000000000000000000000000000000000000000000000000001a00000000000000000000000000000000000000000000000000000000000000001000000000000000000000000c83b139327ba47a9bae64f9fe0672185d85f38e5000000000000000000000000000000000000000000000000000000000000000100000000000000000000000000000000000000000000000000000000000000000000000000000000000000000000000000000000000000000000000000000001000000000000000000000000000000000000000000000000000000000000002000000000000000000000000000000000000000000000000000000000000000249b36057c000000000000000000000000610178da211fef7d417bc0e6fed39f05609ad788000000000000000000000000000000000000000000000000000000000000000000000000000000000000000000000000000000000000000000000023526567697374657220525047616d6520696e207468652047616d6552656769737472790000000000000000000000000000000000000000000000000000000000",
        "nonce": "0x11",
        "chainId": "0xaa36a7"
      },
      "additionalContracts": [],
      "isFixedGasLimit": false
    },
    {
      "hash": "0x24719b99c6f9a87382385ab4e9482dc7dc7b8729ce641f17d38aae2e06f0dc81",
      "transactionType": "CALL",
      "contractName": null,
      "contractAddress": "0x51511bed41dd4d3cdec574f85b6ebba123b9b1d1",
      "function": "propose(address[],uint256[],bytes[],string)",
      "arguments": [
        "[0xc83b139327BA47a9BAe64f9Fe0672185d85F38e5]",
        "[0]",
        "[0x64462142000000000000000000000000610178da211fef7d417bc0e6fed39f05609ad7880000000000000000000000008a791620dd6260079bf849dc5567adc3f2fdc3180000000000000000000000000000000000000000000000000000000000000060000000000000000000000000000000000000000000000000000000000000000294b409595cf2c8850162f935221c0233317005c58cfee9bd19a88aafb8f49d97da72c8430501db9a62ea78b2b0f1a53b2c2d3f9755c1972a608f2a04d6029875]",
        "Grant sword attributes permissions to RPGame"
      ],
      "transaction": {
        "from": "0x6698bf15be0abbdf4b0dcd60d97fce7461dd9c1b",
        "to": "0x51511bed41dd4d3cdec574f85b6ebba123b9b1d1",
        "gas": "0x1a24a",
        "value": "0x0",
        "input": "0x7d5e81e2000000000000000000000000000000000000000000000000000000000000008000000000000000000000000000000000000000000000000000000000000000c0000000000000000000000000000000000000000000000000000000000000010000000000000000000000000000000000000000000000000000000000000002400000000000000000000000000000000000000000000000000000000000000001000000000000000000000000c83b139327ba47a9bae64f9fe0672185d85f38e5000000000000000000000000000000000000000000000000000000000000000100000000000000000000000000000000000000000000000000000000000000000000000000000000000000000000000000000000000000000000000000000001000000000000000000000000000000000000000000000000000000000000002000000000000000000000000000000000000000000000000000000000000000c464462142000000000000000000000000610178da211fef7d417bc0e6fed39f05609ad7880000000000000000000000008a791620dd6260079bf849dc5567adc3f2fdc3180000000000000000000000000000000000000000000000000000000000000060000000000000000000000000000000000000000000000000000000000000000294b409595cf2c8850162f935221c0233317005c58cfee9bd19a88aafb8f49d97da72c8430501db9a62ea78b2b0f1a53b2c2d3f9755c1972a608f2a04d602987500000000000000000000000000000000000000000000000000000000000000000000000000000000000000000000000000000000000000000000002c4772616e742073776f72642061747472696275746573207065726d697373696f6e7320746f20525047616d650000000000000000000000000000000000000000",
        "nonce": "0x12",
        "chainId": "0xaa36a7"
      },
      "additionalContracts": [],
      "isFixedGasLimit": false
    }
  ],
  "receipts": [
    {
      "status": "0x1",
      "cumulativeGasUsed": "0x940298",
      "logs": [
        {
          "address": "0x51511bed41dd4d3cdec574f85b6ebba123b9b1d1",
          "topics": [
            "0x7d84a6263ae0d98d3329bd7b46bb4e8d6f98cd35a7adb45c274c8b7fd5ebd5e0"
          ],
          "data": "0x7060e9b40b82fa207a02892bcbeb14cb540bb861eaf4a29387e8627be64bbe890000000000000000000000006698bf15be0abbdf4b0dcd60d97fce7461dd9c1b0000000000000000000000000000000000000000000000000000000000000120000000000000000000000000000000000000000000000000000000000000016000000000000000000000000000000000000000000000000000000000000001a0000000000000000000000000000000000000000000000000000000000000020000000000000000000000000000000000000000000000000000000000007cb76e00000000000000000000000000000000000000000000000000000000007cb77800000000000000000000000000000000000000000000000000000000000002a00000000000000000000000000000000000000000000000000000000000000001000000000000000000000000c83b139327ba47a9bae64f9fe0672185d85f38e5000000000000000000000000000000000000000000000000000000000000000100000000000000000000000000000000000000000000000000000000000000000000000000000000000000000000000000000000000000000000000000000001000000000000000000000000000000000000000000000000000000000000002000000000000000000000000000000000000000000000000000000000000000000000000000000000000000000000000000000000000000000000000000000001000000000000000000000000000000000000000000000000000000000000002000000000000000000000000000000000000000000000000000000000000000249b36057c000000000000000000000000610178da211fef7d417bc0e6fed39f05609ad788000000000000000000000000000000000000000000000000000000000000000000000000000000000000000000000000000000000000000000000023526567697374657220525047616d6520696e207468652047616d6552656769737472790000000000000000000000000000000000000000000000000000000000",
          "blockHash": "0x806c64de1da4366860a8046c401a0f906582ab94e2220e6ab5d6a090cbd0fc77",
          "blockNumber": "0x7cb76d",
          "blockTimestamp": "0x6807bfa0",
          "transactionHash": "0x042756c66cd9948a0ae2c306cf992159e11642c793c6efeec528efc9aab6a188",
          "transactionIndex": "0x60",
          "logIndex": "0x84",
          "removed": false
        }
      ],
      "logsBloom": "0x00000000000000000000000000000000000000000000000000000000000000000000000000000000000000000000000000000000000000000000000000000008000000000202000000000000000000000000000000000000000000000000000000000000000000000000000000000000000000000000008000000000000000000000000000000000000000000000000000000000000000000000000000000000080000000000000000000000000000000000000000000000000000000000000200000000000000000000000000000000000000000000000000000000000000000000000000000000000000000000000000000000000000000000000000000000",
      "type": "0x2",
      "transactionHash": "0x042756c66cd9948a0ae2c306cf992159e11642c793c6efeec528efc9aab6a188",
      "transactionIndex": "0x60",
      "blockHash": "0x806c64de1da4366860a8046c401a0f906582ab94e2220e6ab5d6a090cbd0fc77",
      "blockNumber": "0x7cb76d",
      "gasUsed": "0x10f13",
      "effectiveGasPrice": "0x3687bc1b4",
      "from": "0x6698bf15be0abbdf4b0dcd60d97fce7461dd9c1b",
      "to": "0x51511bed41dd4d3cdec574f85b6ebba123b9b1d1",
      "contractAddress": null
    },
    {
      "status": "0x1",
      "cumulativeGasUsed": "0x95209b",
      "logs": [
        {
          "address": "0x51511bed41dd4d3cdec574f85b6ebba123b9b1d1",
          "topics": [
            "0x7d84a6263ae0d98d3329bd7b46bb4e8d6f98cd35a7adb45c274c8b7fd5ebd5e0"
          ],
          "data": "0x2453b0275daa49ecb76600a27e35273f33431cee55a0b1e4ba38c9a8b01433980000000000000000000000006698bf15be0abbdf4b0dcd60d97fce7461dd9c1b0000000000000000000000000000000000000000000000000000000000000120000000000000000000000000000000000000000000000000000000000000016000000000000000000000000000000000000000000000000000000000000001a0000000000000000000000000000000000000000000000000000000000000020000000000000000000000000000000000000000000000000000000000007cb76e00000000000000000000000000000000000000000000000000000000007cb77800000000000000000000000000000000000000000000000000000000000003400000000000000000000000000000000000000000000000000000000000000001000000000000000000000000c83b139327ba47a9bae64f9fe0672185d85f38e5000000000000000000000000000000000000000000000000000000000000000100000000000000000000000000000000000000000000000000000000000000000000000000000000000000000000000000000000000000000000000000000001000000000000000000000000000000000000000000000000000000000000002000000000000000000000000000000000000000000000000000000000000000000000000000000000000000000000000000000000000000000000000000000001000000000000000000000000000000000000000000000000000000000000002000000000000000000000000000000000000000000000000000000000000000c464462142000000000000000000000000610178da211fef7d417bc0e6fed39f05609ad7880000000000000000000000008a791620dd6260079bf849dc5567adc3f2fdc3180000000000000000000000000000000000000000000000000000000000000060000000000000000000000000000000000000000000000000000000000000000294b409595cf2c8850162f935221c0233317005c58cfee9bd19a88aafb8f49d97da72c8430501db9a62ea78b2b0f1a53b2c2d3f9755c1972a608f2a04d602987500000000000000000000000000000000000000000000000000000000000000000000000000000000000000000000000000000000000000000000002c4772616e742073776f72642061747472696275746573207065726d697373696f6e7320746f20525047616d650000000000000000000000000000000000000000",
          "blockHash": "0x806c64de1da4366860a8046c401a0f906582ab94e2220e6ab5d6a090cbd0fc77",
          "blockNumber": "0x7cb76d",
          "blockTimestamp": "0x6807bfa0",
          "transactionHash": "0x24719b99c6f9a87382385ab4e9482dc7dc7b8729ce641f17d38aae2e06f0dc81",
          "transactionIndex": "0x61",
          "logIndex": "0x85",
          "removed": false
        }
      ],
      "logsBloom": "0x00000000000000000000000000000000000000000000000000000000000000000000000000000000000000000000000000000000000000000000000000000008000000000202000000000000000000000000000000000000000000000000000000000000000000000000000000000000000000000000008000000000000000000000000000000000000000000000000000000000000000000000000000000000080000000000000000000000000000000000000000000000000000000000000200000000000000000000000000000000000000000000000000000000000000000000000000000000000000000000000000000000000000000000000000000000",
      "type": "0x2",
      "transactionHash": "0x24719b99c6f9a87382385ab4e9482dc7dc7b8729ce641f17d38aae2e06f0dc81",
      "transactionIndex": "0x61",
      "blockHash": "0x806c64de1da4366860a8046c401a0f906582ab94e2220e6ab5d6a090cbd0fc77",
      "blockNumber": "0x7cb76d",
      "gasUsed": "0x11e03",
      "effectiveGasPrice": "0x3687bc1b4",
      "from": "0x6698bf15be0abbdf4b0dcd60d97fce7461dd9c1b",
      "to": "0x51511bed41dd4d3cdec574f85b6ebba123b9b1d1",
      "contractAddress": null
    }
  ],
  "libraries": [],
  "pending": [],
  "returns": {},
  "timestamp": 1745338274,
  "chain": 11155111,
  "commit": "8f6851d"
}