{
  "transactions": [
    {
      "hash": "0x951787dda524dd427949389132c9b162359b4f17bb9a797b32243a9e7f68df64",
      "transactionType": "CALL",
      "contractName": "GameRegistryGovernor",
      "contractAddress": "0x51511bed41dd4d3cdec574f85b6ebba123b9b1d1",
      "function": "queue(address[],uint256[],bytes[],bytes32)",
      "arguments": [
        "[0xc83b139327BA47a9BAe64f9Fe0672185d85F38e5]",
        "[0]",
        "[0x64462142000000000000000000000000610178da211fef7d417bc0e6fed39f05609ad7880000000000000000000000008a791620dd6260079bf849dc5567adc3f2fdc3180000000000000000000000000000000000000000000000000000000000000060000000000000000000000000000000000000000000000000000000000000000294b409595cf2c8850162f935221c0233317005c58cfee9bd19a88aafb8f49d97da72c8430501db9a62ea78b2b0f1a53b2c2d3f9755c1972a608f2a04d6029875]",
        "0x93f9ec7db6eea84d6d38e8c5d74731e4a81f70889dc1b6427bf650327fd1b07c"
      ],
      "transaction": {
        "from": "0x6698bf15be0abbdf4b0dcd60d97fce7461dd9c1b",
        "to": "0x51511bed41dd4d3cdec574f85b6ebba123b9b1d1",
        "gas": "0x356b4",
        "value": "0x0",
        "input": "0x160cbed7000000000000000000000000000000000000000000000000000000000000008000000000000000000000000000000000000000000000000000000000000000c0000000000000000000000000000000000000000000000000000000000000010093f9ec7db6eea84d6d38e8c5d74731e4a81f70889dc1b6427bf650327fd1b07c0000000000000000000000000000000000000000000000000000000000000001000000000000000000000000c83b139327ba47a9bae64f9fe0672185d85f38e5000000000000000000000000000000000000000000000000000000000000000100000000000000000000000000000000000000000000000000000000000000000000000000000000000000000000000000000000000000000000000000000001000000000000000000000000000000000000000000000000000000000000002000000000000000000000000000000000000000000000000000000000000000c464462142000000000000000000000000610178da211fef7d417bc0e6fed39f05609ad7880000000000000000000000008a791620dd6260079bf849dc5567adc3f2fdc3180000000000000000000000000000000000000000000000000000000000000060000000000000000000000000000000000000000000000000000000000000000294b409595cf2c8850162f935221c0233317005c58cfee9bd19a88aafb8f49d97da72c8430501db9a62ea78b2b0f1a53b2c2d3f9755c1972a608f2a04d602987500000000000000000000000000000000000000000000000000000000",
        "nonce": "0x20",
        "chainId": "0xaa36a7"
      },
      "additionalContracts": [],
      "isFixedGasLimit": false
    }
  ],
  "receipts": [
    {
      "status": "0x1",
      "cumulativeGasUsed": "0x888ab8",
      "logs": [
        {
          "address": "0x0232e7a35d64d60db0617a02e42897c8f41ba4a3",
          "topics": [
            "0x4cf4410cc57040e44862ef0f45f3dd5a5e02db8eb8add648d4b0e236f1d07dca",
            "0x264ce5b739780c20b2eb8a7df1da9eb0f2d296bf0e2c106e4f55992021322e8b",
            "0x0000000000000000000000000000000000000000000000000000000000000000"
          ],
          "data": "0x000000000000000000000000c83b139327ba47a9bae64f9fe0672185d85f38e5000000000000000000000000000000000000000000000000000000000000000000000000000000000000000000000000000000000000000000000000000000a00000000000000000000000000000000000000000000000000000000000000000000000000000000000000000000000000000000000000000000000000001518000000000000000000000000000000000000000000000000000000000000000c464462142000000000000000000000000610178da211fef7d417bc0e6fed39f05609ad7880000000000000000000000008a791620dd6260079bf849dc5567adc3f2fdc3180000000000000000000000000000000000000000000000000000000000000060000000000000000000000000000000000000000000000000000000000000000294b409595cf2c8850162f935221c0233317005c58cfee9bd19a88aafb8f49d97da72c8430501db9a62ea78b2b0f1a53b2c2d3f9755c1972a608f2a04d602987500000000000000000000000000000000000000000000000000000000",
          "blockHash": "0xfd3a86585cba334501aaedc64e5409e6bf9721ad9185684210ccae98c0707748",
          "blockNumber": "0x7d33dc",
          "blockTimestamp": "0x680df900",
          "transactionHash": "0x951787dda524dd427949389132c9b162359b4f17bb9a797b32243a9e7f68df64",
          "transactionIndex": "0x77",
          "logIndex": "0x80",
          "removed": false
        },
        {
          "address": "0x0232e7a35d64d60db0617a02e42897c8f41ba4a3",
          "topics": [
            "0x20fda5fd27a1ea7bf5b9567f143ac5470bb059374a27e8f67cb44f946f6d0387",
            "0x264ce5b739780c20b2eb8a7df1da9eb0f2d296bf0e2c106e4f55992021322e8b"
          ],
          "data": "0xc2a8f790f733e571b3fd9c3d8c298a458ba6c1599dc1b6427bf650327fd1b07c",
          "blockHash": "0xfd3a86585cba334501aaedc64e5409e6bf9721ad9185684210ccae98c0707748",
          "blockNumber": "0x7d33dc",
          "blockTimestamp": "0x680df900",
          "transactionHash": "0x951787dda524dd427949389132c9b162359b4f17bb9a797b32243a9e7f68df64",
          "transactionIndex": "0x77",
          "logIndex": "0x81",
          "removed": false
        },
        {
          "address": "0x51511bed41dd4d3cdec574f85b6ebba123b9b1d1",
          "topics": [
            "0x9a2e42fd6722813d69113e7d0079d3d940171428df7373df9c7f7617cfda2892"
          ],
          "data": "0xf0d17281127bd55323583d652f12e9b09b72df47a08f2a8ad9e9093dc7755c2c00000000000000000000000000000000000000000000000000000000680f4a80",
          "blockHash": "0xfd3a86585cba334501aaedc64e5409e6bf9721ad9185684210ccae98c0707748",
          "blockNumber": "0x7d33dc",
          "blockTimestamp": "0x680df900",
          "transactionHash": "0x951787dda524dd427949389132c9b162359b4f17bb9a797b32243a9e7f68df64",
          "transactionIndex": "0x77",
          "logIndex": "0x82",
          "removed": false
        }
      ],
      "logsBloom": "0x00000000000000000000000040000000000000000000000000000000000000000000000000000000000000000000000100000000800000000100000000000008000000000200000000000000002000000000000000000008000000000000000000000000020000000000000000000800000081000000008000000000000000000000000000002000000000000000000000000000000000000020000000000000000000000000000000000000000000004000000000000000000000000000000000000000000000000000000000100000000000000000400000000000400020000000000000000000001000000000000000000000000000000000000000000000",
      "type": "0x2",
      "transactionHash": "0x951787dda524dd427949389132c9b162359b4f17bb9a797b32243a9e7f68df64",
      "transactionIndex": "0x77",
      "blockHash": "0xfd3a86585cba334501aaedc64e5409e6bf9721ad9185684210ccae98c0707748",
      "blockNumber": "0x7d33dc",
      "gasUsed": "0x2486a",
      "effectiveGasPrice": "0x74ccd2f6e",
      "from": "0x6698bf15be0abbdf4b0dcd60d97fce7461dd9c1b",
      "to": "0x51511bed41dd4d3cdec574f85b6ebba123b9b1d1",
      "contractAddress": null
    }
  ],
  "libraries": [],
  "pending": [],
  "returns": {},
  "timestamp": 1745746179,
  "chain": 11155111,
  "commit": "28c6100"
}