{
  "transactions": [
    {
      "hash": "0x5e3f13a190e8278854484565988332b7c50f53e57a1a567ccaea2d7242bee7e1",
      "transactionType": "CALL",
      "contractName": "GameRegistryGovernor",
      "contractAddress": "0x51511bed41dd4d3cdec574f85b6ebba123b9b1d1",
      "function": "queue(address[],uint256[],bytes[],bytes32)",
      "arguments": [
        "[0xc83b139327BA47a9BAe64f9Fe0672185d85F38e5]",
        "[0]",
        "[0x6446214200000000000000000000000057b398b41ae594675bf5fa642c704e64ba07f516000000000000000000000000d0f3ac4f44c545f16bdacb693c71521bc31fc256000000000000000000000000000000000000000000000000000000000000006000000000000000000000000000000000000000000000000000000000000000020615365f5d385e4fe29c28bb271ebfe27d8776c0e78b1eba2a353311412f3c99de5d1fa8a6595003796d9e5b2987cc61048747f1dd20f651054db2aab3d74ec1]",
        "0x6d8ef1b7b44b1d4a4863b2588daa5801eea9ba410bba049e4c68bda6b51aa411"
      ],
      "transaction": {
        "from": "0x6698bf15be0abbdf4b0dcd60d97fce7461dd9c1b",
        "to": "0x51511bed41dd4d3cdec574f85b6ebba123b9b1d1",
        "gas": "0x356b4",
        "value": "0x0",
        "input": "0x160cbed7000000000000000000000000000000000000000000000000000000000000008000000000000000000000000000000000000000000000000000000000000000c000000000000000000000000000000000000000000000000000000000000001006d8ef1b7b44b1d4a4863b2588daa5801eea9ba410bba049e4c68bda6b51aa4110000000000000000000000000000000000000000000000000000000000000001000000000000000000000000c83b139327ba47a9bae64f9fe0672185d85f38e5000000000000000000000000000000000000000000000000000000000000000100000000000000000000000000000000000000000000000000000000000000000000000000000000000000000000000000000000000000000000000000000001000000000000000000000000000000000000000000000000000000000000002000000000000000000000000000000000000000000000000000000000000000c46446214200000000000000000000000057b398b41ae594675bf5fa642c704e64ba07f516000000000000000000000000d0f3ac4f44c545f16bdacb693c71521bc31fc256000000000000000000000000000000000000000000000000000000000000006000000000000000000000000000000000000000000000000000000000000000020615365f5d385e4fe29c28bb271ebfe27d8776c0e78b1eba2a353311412f3c99de5d1fa8a6595003796d9e5b2987cc61048747f1dd20f651054db2aab3d74ec100000000000000000000000000000000000000000000000000000000",
        "nonce": "0x2a",
        "chainId": "0xaa36a7"
      },
      "additionalContracts": [],
      "isFixedGasLimit": false
    }
  ],
  "receipts": [
    {
      "status": "0x1",
      "cumulativeGasUsed": "0xee5681",
      "logs": [
        {
          "address": "0x0232e7a35d64d60db0617a02e42897c8f41ba4a3",
          "topics": [
            "0x4cf4410cc57040e44862ef0f45f3dd5a5e02db8eb8add648d4b0e236f1d07dca",
            "0x61988d4ee32964ce7c3f9dd9fcb26cde6bc32a86190d4078bb2a8d453d0b3798",
            "0x0000000000000000000000000000000000000000000000000000000000000000"
          ],
          "data": "0x000000000000000000000000c83b139327ba47a9bae64f9fe0672185d85f38e5000000000000000000000000000000000000000000000000000000000000000000000000000000000000000000000000000000000000000000000000000000a00000000000000000000000000000000000000000000000000000000000000000000000000000000000000000000000000000000000000000000000000001518000000000000000000000000000000000000000000000000000000000000000c46446214200000000000000000000000057b398b41ae594675bf5fa642c704e64ba07f516000000000000000000000000d0f3ac4f44c545f16bdacb693c71521bc31fc256000000000000000000000000000000000000000000000000000000000000006000000000000000000000000000000000000000000000000000000000000000020615365f5d385e4fe29c28bb271ebfe27d8776c0e78b1eba2a353311412f3c99de5d1fa8a6595003796d9e5b2987cc61048747f1dd20f651054db2aab3d74ec100000000000000000000000000000000000000000000000000000000",
          "blockHash": "0xb1ac5895673f5b5dfd28769427e8973609d464d81e98bb185be22aa3b51eb51c",
          "blockNumber": "0x7d5829",
          "blockTimestamp": "0x680fcb20",
          "transactionHash": "0x5e3f13a190e8278854484565988332b7c50f53e57a1a567ccaea2d7242bee7e1",
          "transactionIndex": "0x64",
          "logIndex": "0x160",
          "removed": false
        },
        {
          "address": "0x0232e7a35d64d60db0617a02e42897c8f41ba4a3",
          "topics": [
            "0x20fda5fd27a1ea7bf5b9567f143ac5470bb059374a27e8f67cb44f946f6d0387",
            "0x61988d4ee32964ce7c3f9dd9fcb26cde6bc32a86190d4078bb2a8d453d0b3798"
          ],
          "data": "0x3cdfea5af596507696a6c6a0d6c4e3a0cd100b900bba049e4c68bda6b51aa411",
          "blockHash": "0xb1ac5895673f5b5dfd28769427e8973609d464d81e98bb185be22aa3b51eb51c",
          "blockNumber": "0x7d5829",
          "blockTimestamp": "0x680fcb20",
          "transactionHash": "0x5e3f13a190e8278854484565988332b7c50f53e57a1a567ccaea2d7242bee7e1",
          "transactionIndex": "0x64",
          "logIndex": "0x161",
          "removed": false
        },
        {
          "address": "0x51511bed41dd4d3cdec574f85b6ebba123b9b1d1",
          "topics": [
            "0x9a2e42fd6722813d69113e7d0079d3d940171428df7373df9c7f7617cfda2892"
          ],
          "data": "0x26b03b0ec848cffb8407b13437c83217fad864184eab8943ae0cd20687a979da0000000000000000000000000000000000000000000000000000000068111ca0",
          "blockHash": "0xb1ac5895673f5b5dfd28769427e8973609d464d81e98bb185be22aa3b51eb51c",
          "blockNumber": "0x7d5829",
          "blockTimestamp": "0x680fcb20",
          "transactionHash": "0x5e3f13a190e8278854484565988332b7c50f53e57a1a567ccaea2d7242bee7e1",
          "transactionIndex": "0x64",
          "logIndex": "0x162",
          "removed": false
        }
      ],
      "logsBloom": "0x00000001000000000000000040000000000000000000000000000000000000000000000000000000000000000000000100000000800000000100000000000008000000000200000000000000002000000000000000000008000000000000000000000000020000000000000000040800000081000000008000000000000000000000000000000000000000000008000000000000000000000000000000000000000000000000000000000000000000000000000000000000000000000000000000000000000000000000000000100000000000000000400000000000400020000000000000000000001000000000000000000000000000000000000000000000",
      "type": "0x2",
      "transactionHash": "0x5e3f13a190e8278854484565988332b7c50f53e57a1a567ccaea2d7242bee7e1",
      "transactionIndex": "0x64",
      "blockHash": "0xb1ac5895673f5b5dfd28769427e8973609d464d81e98bb185be22aa3b51eb51c",
      "blockNumber": "0x7d5829",
      "gasUsed": "0x2486a",
      "effectiveGasPrice": "0x422afd37",
      "from": "0x6698bf15be0abbdf4b0dcd60d97fce7461dd9c1b",
      "to": "0x51511bed41dd4d3cdec574f85b6ebba123b9b1d1",
      "contractAddress": null
    }
  ],
  "libraries": [],
  "pending": [],
  "returns": {},
  "timestamp": 1745865506,
  "chain": 11155111,
  "commit": "0d0851a"
}