{
  "transactions": [
    {
      "hash": "0x17409339328701e11ca13dc17ed5159764e7e697a098091f5c6b30a47e0803f0",
      "transactionType": "CALL",
      "contractName": "GameRegistryGovernor",
      "contractAddress": "0x51511bed41dd4d3cdec574f85b6ebba123b9b1d1",
      "function": "execute(address[],uint256[],bytes[],bytes32)",
      "arguments": [
        "[0xc83b139327BA47a9BAe64f9Fe0672185d85F38e5]",
        "[0]",
        "[0x64462142000000000000000000000000610178da211fef7d417bc0e6fed39f05609ad7880000000000000000000000008a791620dd6260079bf849dc5567adc3f2fdc3180000000000000000000000000000000000000000000000000000000000000060000000000000000000000000000000000000000000000000000000000000000294b409595cf2c8850162f935221c0233317005c58cfee9bd19a88aafb8f49d97da72c8430501db9a62ea78b2b0f1a53b2c2d3f9755c1972a608f2a04d6029875]",
        "0x93f9ec7db6eea84d6d38e8c5d74731e4a81f70889dc1b6427bf650327fd1b07c"
      ],
      "transaction": {
        "from": "0x6698bf15be0abbdf4b0dcd60d97fce7461dd9c1b",
        "to": "0x51511bed41dd4d3cdec574f85b6ebba123b9b1d1",
        "gas": "0x53724",
        "value": "0x0",
        "input": "0x2656227d000000000000000000000000000000000000000000000000000000000000008000000000000000000000000000000000000000000000000000000000000000c0000000000000000000000000000000000000000000000000000000000000010093f9ec7db6eea84d6d38e8c5d74731e4a81f70889dc1b6427bf650327fd1b07c0000000000000000000000000000000000000000000000000000000000000001000000000000000000000000c83b139327ba47a9bae64f9fe0672185d85f38e5000000000000000000000000000000000000000000000000000000000000000100000000000000000000000000000000000000000000000000000000000000000000000000000000000000000000000000000000000000000000000000000001000000000000000000000000000000000000000000000000000000000000002000000000000000000000000000000000000000000000000000000000000000c464462142000000000000000000000000610178da211fef7d417bc0e6fed39f05609ad7880000000000000000000000008a791620dd6260079bf849dc5567adc3f2fdc3180000000000000000000000000000000000000000000000000000000000000060000000000000000000000000000000000000000000000000000000000000000294b409595cf2c8850162f935221c0233317005c58cfee9bd19a88aafb8f49d97da72c8430501db9a62ea78b2b0f1a53b2c2d3f9755c1972a608f2a04d602987500000000000000000000000000000000000000000000000000000000",
        "nonce": "0x22",
        "chainId": "0xaa36a7"
      },
      "additionalContracts": [],
      "isFixedGasLimit": false
    }
  ],
  "receipts": [
    {
      "status": "0x1",
      "cumulativeGasUsed": "0x1188534",
      "logs": [
        {
          "address": "0xc83b139327ba47a9bae64f9fe0672185d85f38e5",
          "topics": [
            "0xccc42bc1ecb9d6c68912cf0ffa796cc162e41ee25021df962fcf3c10d5f5ce9d",
            "0x000000000000000000000000610178da211fef7d417bc0e6fed39f05609ad788",
            "0x0000000000000000000000008a791620dd6260079bf849dc5567adc3f2fdc318"
          ],
          "data": "0x0000000000000000000000000000000000000000000000000000000000000020000000000000000000000000000000000000000000000000000000000000000294b409595cf2c8850162f935221c0233317005c58cfee9bd19a88aafb8f49d97da72c8430501db9a62ea78b2b0f1a53b2c2d3f9755c1972a608f2a04d6029875",
          "blockHash": "0x0152a9c9d16f93efbe3d628ff2076b4ec54f56048a4987839cabd02abfb1b05b",
          "blockNumber": "0x7d4f75",
          "blockTimestamp": "0x680f5b6c",
          "transactionHash": "0x17409339328701e11ca13dc17ed5159764e7e697a098091f5c6b30a47e0803f0",
          "transactionIndex": "0xad",
          "logIndex": "0x147",
          "removed": false
        },
        {
          "address": "0x0232e7a35d64d60db0617a02e42897c8f41ba4a3",
          "topics": [
            "0xc2617efa69bab66782fa219543714338489c4e9e178271560a91b82c3f612b58",
            "0x264ce5b739780c20b2eb8a7df1da9eb0f2d296bf0e2c106e4f55992021322e8b",
            "0x0000000000000000000000000000000000000000000000000000000000000000"
          ],
          "data": "0x000000000000000000000000c83b139327ba47a9bae64f9fe0672185d85f38e50000000000000000000000000000000000000000000000000000000000000000000000000000000000000000000000000000000000000000000000000000006000000000000000000000000000000000000000000000000000000000000000c464462142000000000000000000000000610178da211fef7d417bc0e6fed39f05609ad7880000000000000000000000008a791620dd6260079bf849dc5567adc3f2fdc3180000000000000000000000000000000000000000000000000000000000000060000000000000000000000000000000000000000000000000000000000000000294b409595cf2c8850162f935221c0233317005c58cfee9bd19a88aafb8f49d97da72c8430501db9a62ea78b2b0f1a53b2c2d3f9755c1972a608f2a04d602987500000000000000000000000000000000000000000000000000000000",
          "blockHash": "0x0152a9c9d16f93efbe3d628ff2076b4ec54f56048a4987839cabd02abfb1b05b",
          "blockNumber": "0x7d4f75",
          "blockTimestamp": "0x680f5b6c",
          "transactionHash": "0x17409339328701e11ca13dc17ed5159764e7e697a098091f5c6b30a47e0803f0",
          "transactionIndex": "0xad",
          "logIndex": "0x148",
          "removed": false
        },
        {
          "address": "0x51511bed41dd4d3cdec574f85b6ebba123b9b1d1",
          "topics": [
            "0x712ae1383f79ac853f8d882153778e0260ef8f03b504e2866e0593e04d2b291f"
          ],
          "data": "0xf0d17281127bd55323583d652f12e9b09b72df47a08f2a8ad9e9093dc7755c2c",
          "blockHash": "0x0152a9c9d16f93efbe3d628ff2076b4ec54f56048a4987839cabd02abfb1b05b",
          "blockNumber": "0x7d4f75",
          "blockTimestamp": "0x680f5b6c",
          "transactionHash": "0x17409339328701e11ca13dc17ed5159764e7e697a098091f5c6b30a47e0803f0",
          "transactionIndex": "0xad",
          "logIndex": "0x149",
          "removed": false
        }
      ],
      "logsBloom": "0x00000000000000000000000000000000000000000000000000000000000000200000000000000000000000000000000000000000000800000000000000000008000000000200000000000000000008000000004000000000000001000000002000000000020000000000000000000800000001000000008000000000000000000000000000002100000000000000000000000044000000000020000000000000000010000120000000020000000000004000000000000000000020000000000000000010000000080000000000000000000000000000000000000000400020000000000000000000001400000000000000001000000000000000000000000000",
      "type": "0x2",
      "transactionHash": "0x17409339328701e11ca13dc17ed5159764e7e697a098091f5c6b30a47e0803f0",
      "transactionIndex": "0xad",
      "blockHash": "0x0152a9c9d16f93efbe3d628ff2076b4ec54f56048a4987839cabd02abfb1b05b",
      "blockNumber": "0x7d4f75",
      "gasUsed": "0x390eb",
      "effectiveGasPrice": "0x4bcd90ccb",
      "from": "0x6698bf15be0abbdf4b0dcd60d97fce7461dd9c1b",
      "to": "0x51511bed41dd4d3cdec574f85b6ebba123b9b1d1",
      "contractAddress": null
    }
  ],
  "libraries": [],
  "pending": [],
  "returns": {},
  "timestamp": 1745836909,
  "chain": 11155111,
  "commit": "0d0851a"
}