{
  "transactions": [
    {
      "hash": "0x99bb56467dc7a62b3cb3eed14f3770f51d6b40e9dde617b9b6475178d4b27028",
      "transactionType": "CALL",
      "contractName": "GameRegistryGovernor",
      "contractAddress": "0x51511bed41dd4d3cdec574f85b6ebba123b9b1d1",
      "function": "execute(address[],uint256[],bytes[],bytes32)",
      "arguments": [
        "[0xc83b139327BA47a9BAe64f9Fe0672185d85F38e5]",
        "[0]",
        "[0x6446214200000000000000000000000057b398b41ae594675bf5fa642c704e64ba07f516000000000000000000000000d0f3ac4f44c545f16bdacb693c71521bc31fc256000000000000000000000000000000000000000000000000000000000000006000000000000000000000000000000000000000000000000000000000000000020615365f5d385e4fe29c28bb271ebfe27d8776c0e78b1eba2a353311412f3c99de5d1fa8a6595003796d9e5b2987cc61048747f1dd20f651054db2aab3d74ec1]",
        "0x6d8ef1b7b44b1d4a4863b2588daa5801eea9ba410bba049e4c68bda6b51aa411"
      ],
      "transaction": {
        "from": "0x6698bf15be0abbdf4b0dcd60d97fce7461dd9c1b",
        "to": "0x51511bed41dd4d3cdec574f85b6ebba123b9b1d1",
        "gas": "0x53724",
        "value": "0x0",
        "input": "0x2656227d000000000000000000000000000000000000000000000000000000000000008000000000000000000000000000000000000000000000000000000000000000c000000000000000000000000000000000000000000000000000000000000001006d8ef1b7b44b1d4a4863b2588daa5801eea9ba410bba049e4c68bda6b51aa4110000000000000000000000000000000000000000000000000000000000000001000000000000000000000000c83b139327ba47a9bae64f9fe0672185d85f38e5000000000000000000000000000000000000000000000000000000000000000100000000000000000000000000000000000000000000000000000000000000000000000000000000000000000000000000000000000000000000000000000001000000000000000000000000000000000000000000000000000000000000002000000000000000000000000000000000000000000000000000000000000000c46446214200000000000000000000000057b398b41ae594675bf5fa642c704e64ba07f516000000000000000000000000d0f3ac4f44c545f16bdacb693c71521bc31fc256000000000000000000000000000000000000000000000000000000000000006000000000000000000000000000000000000000000000000000000000000000020615365f5d385e4fe29c28bb271ebfe27d8776c0e78b1eba2a353311412f3c99de5d1fa8a6595003796d9e5b2987cc61048747f1dd20f651054db2aab3d74ec100000000000000000000000000000000000000000000000000000000",
        "nonce": "0x2c",
        "chainId": "0xaa36a7"
      },
      "additionalContracts": [],
      "isFixedGasLimit": false
    }
  ],
  "receipts": [
    {
      "status": "0x1",
      "cumulativeGasUsed": "0x6eec82",
      "logs": [
        {
          "address": "0xc83b139327ba47a9bae64f9fe0672185d85f38e5",
          "topics": [
            "0xccc42bc1ecb9d6c68912cf0ffa796cc162e41ee25021df962fcf3c10d5f5ce9d",
            "0x00000000000000000000000057b398b41ae594675bf5fa642c704e64ba07f516",
            "0x000000000000000000000000d0f3ac4f44c545f16bdacb693c71521bc31fc256"
          ],
          "data": "0x000000000000000000000000000000000000000000000000000000000000002000000000000000000000000000000000000000000000000000000000000000020615365f5d385e4fe29c28bb271ebfe27d8776c0e78b1eba2a353311412f3c99de5d1fa8a6595003796d9e5b2987cc61048747f1dd20f651054db2aab3d74ec1",
          "blockHash": "0xb8156d833a04b5cdf8511e453e874c4597723a18e31e0452ba22b3a62cc76979",
          "blockNumber": "0x7d751b",
          "blockTimestamp": "0x68113fd4",
          "transactionHash": "0x99bb56467dc7a62b3cb3eed14f3770f51d6b40e9dde617b9b6475178d4b27028",
          "transactionIndex": "0x46",
          "logIndex": "0x75",
          "removed": false
        },
        {
          "address": "0x0232e7a35d64d60db0617a02e42897c8f41ba4a3",
          "topics": [
            "0xc2617efa69bab66782fa219543714338489c4e9e178271560a91b82c3f612b58",
            "0x61988d4ee32964ce7c3f9dd9fcb26cde6bc32a86190d4078bb2a8d453d0b3798",
            "0x0000000000000000000000000000000000000000000000000000000000000000"
          ],
          "data": "0x000000000000000000000000c83b139327ba47a9bae64f9fe0672185d85f38e50000000000000000000000000000000000000000000000000000000000000000000000000000000000000000000000000000000000000000000000000000006000000000000000000000000000000000000000000000000000000000000000c46446214200000000000000000000000057b398b41ae594675bf5fa642c704e64ba07f516000000000000000000000000d0f3ac4f44c545f16bdacb693c71521bc31fc256000000000000000000000000000000000000000000000000000000000000006000000000000000000000000000000000000000000000000000000000000000020615365f5d385e4fe29c28bb271ebfe27d8776c0e78b1eba2a353311412f3c99de5d1fa8a6595003796d9e5b2987cc61048747f1dd20f651054db2aab3d74ec100000000000000000000000000000000000000000000000000000000",
          "blockHash": "0xb8156d833a04b5cdf8511e453e874c4597723a18e31e0452ba22b3a62cc76979",
          "blockNumber": "0x7d751b",
          "blockTimestamp": "0x68113fd4",
          "transactionHash": "0x99bb56467dc7a62b3cb3eed14f3770f51d6b40e9dde617b9b6475178d4b27028",
          "transactionIndex": "0x46",
          "logIndex": "0x76",
          "removed": false
        },
        {
          "address": "0x51511bed41dd4d3cdec574f85b6ebba123b9b1d1",
          "topics": [
            "0x712ae1383f79ac853f8d882153778e0260ef8f03b504e2866e0593e04d2b291f"
          ],
          "data": "0x26b03b0ec848cffb8407b13437c83217fad864184eab8943ae0cd20687a979da",
          "blockHash": "0xb8156d833a04b5cdf8511e453e874c4597723a18e31e0452ba22b3a62cc76979",
          "blockNumber": "0x7d751b",
          "blockTimestamp": "0x68113fd4",
          "transactionHash": "0x99bb56467dc7a62b3cb3eed14f3770f51d6b40e9dde617b9b6475178d4b27028",
          "transactionIndex": "0x46",
          "logIndex": "0x77",
          "removed": false
        }
      ],
      "logsBloom": "0x00000001080000000000000000000000000000000000000000000000000000000000000000000000000000000000000000000000000800000000000000000008000000000200000000000000000000000000004000000002000000000000002800000000020000800000000000240800000001000000008000000000000000000000000000000100000000000008000000000044000000000000000000000000000010000120000000000000000000000000000000000000000020000000000000000010000000080000000000000000000000000000000000000000400020000000000000000000001000000000000000000000000000000000000001000000",
      "type": "0x2",
      "transactionHash": "0x99bb56467dc7a62b3cb3eed14f3770f51d6b40e9dde617b9b6475178d4b27028",
      "transactionIndex": "0x46",
      "blockHash": "0xb8156d833a04b5cdf8511e453e874c4597723a18e31e0452ba22b3a62cc76979",
      "blockNumber": "0x7d751b",
      "gasUsed": "0x390eb",
      "effectiveGasPrice": "0x3b59d9",
      "from": "0x6698bf15be0abbdf4b0dcd60d97fce7461dd9c1b",
      "to": "0x51511bed41dd4d3cdec574f85b6ebba123b9b1d1",
      "contractAddress": null
    }
  ],
  "libraries": [],
  "pending": [],
  "returns": {},
  "timestamp": 1745960916,
  "chain": 11155111,
  "commit": "53e984e"
}